{
	"contracts/1_Storage.sol": {
		"Storage": {
			"abi": [
				{
					"inputs": [],
					"stateMutability": "nonpayable",
					"type": "constructor"
				},
				{
					"inputs": [],
					"name": "auctionState",
					"outputs": [
						{
							"internalType": "enum Storage.Auc_State",
							"name": "",
							"type": "uint8"
						}
					],
					"stateMutability": "view",
					"type": "function"
				},
				{
					"inputs": [],
					"name": "bid",
					"outputs": [],
					"stateMutability": "payable",
					"type": "function"
				},
				{
					"inputs": [],
					"name": "bidInc",
					"outputs": [
						{
							"internalType": "uint256",
							"name": "",
							"type": "uint256"
						}
					],
					"stateMutability": "view",
					"type": "function"
				},
				{
					"inputs": [
						{
							"internalType": "address",
							"name": "",
							"type": "address"
						}
					],
					"name": "bids",
					"outputs": [
						{
							"internalType": "uint256",
							"name": "",
							"type": "uint256"
						}
					],
					"stateMutability": "view",
					"type": "function"
				},
				{
					"inputs": [],
					"name": "cancelAuc",
					"outputs": [],
					"stateMutability": "nonpayable",
					"type": "function"
				},
				{
					"inputs": [],
					"name": "endAuc",
					"outputs": [],
					"stateMutability": "nonpayable",
					"type": "function"
				},
				{
					"inputs": [],
					"name": "etblock",
					"outputs": [
						{
							"internalType": "uint256",
							"name": "",
							"type": "uint256"
						}
					],
					"stateMutability": "view",
					"type": "function"
				},
				{
					"inputs": [],
					"name": "fializeAuc",
					"outputs": [],
					"stateMutability": "nonpayable",
					"type": "function"
				},
				{
					"inputs": [],
					"name": "highestBid",
					"outputs": [
						{
							"internalType": "uint256",
							"name": "",
							"type": "uint256"
						}
					],
					"stateMutability": "view",
					"type": "function"
				},
				{
					"inputs": [],
					"name": "highestBidder",
					"outputs": [
						{
							"internalType": "address payable",
							"name": "",
							"type": "address"
						}
					],
					"stateMutability": "view",
					"type": "function"
				},
				{
					"inputs": [],
					"name": "highestPayableBid",
					"outputs": [
						{
							"internalType": "uint256",
							"name": "",
							"type": "uint256"
						}
					],
					"stateMutability": "view",
					"type": "function"
				},
				{
					"inputs": [],
					"name": "stblock",
					"outputs": [
						{
							"internalType": "uint256",
							"name": "",
							"type": "uint256"
						}
					],
					"stateMutability": "view",
					"type": "function"
				}
			],
			"devdoc": {
				"kind": "dev",
				"methods": {},
				"version": 1
			},
			"evm": {
				"assembly": "    /* \"contracts/1_Storage.sol\":71:2956  contract Storage {... */\n  mstore(0x40, 0x80)\n    /* \"contracts/1_Storage.sol\":438:626  constructor()... */\n  callvalue\n  dup1\n  iszero\n  tag_1\n  jumpi\n  0x00\n  dup1\n  revert\ntag_1:\n  pop\n    /* \"contracts/1_Storage.sol\":486:496  msg.sender */\n  caller\n    /* \"contracts/1_Storage.sol\":465:475  auctioneer */\n  0x00\n  dup1\n    /* \"contracts/1_Storage.sol\":465:497  auctioneer = payable(msg.sender) */\n  0x0100\n  exp\n  dup2\n  sload\n  dup2\n  0xffffffffffffffffffffffffffffffffffffffff\n  mul\n  not\n  and\n  swap1\n  dup4\n  0xffffffffffffffffffffffffffffffffffffffff\n  and\n  mul\n  or\n  swap1\n  sstore\n  pop\n    /* \"contracts/1_Storage.sol\":521:538  Auc_State.Running */\n  0x01\n    /* \"contracts/1_Storage.sol\":506:518  auctionState */\n  0x03\n  0x00\n    /* \"contracts/1_Storage.sol\":506:538  auctionState = Auc_State.Running */\n  0x0100\n  exp\n  dup2\n  sload\n  dup2\n  0xff\n  mul\n  not\n  and\n  swap1\n  dup4\n  0x03\n  dup2\n  gt\n  iszero\n  tag_4\n  jumpi\n  tag_5\n  tag_6\n  jump\t// in\ntag_5:\ntag_4:\n  mul\n  or\n  swap1\n  sstore\n  pop\n    /* \"contracts/1_Storage.sol\":556:568  block.number */\n  number\n    /* \"contracts/1_Storage.sol\":547:554  stblock */\n  0x01\n    /* \"contracts/1_Storage.sol\":547:568  stblock =block.number */\n  dup2\n  swap1\n  sstore\n  pop\n    /* \"contracts/1_Storage.sol\":593:596  240 */\n  0xf0\n    /* \"contracts/1_Storage.sol\":585:592  stblock */\n  sload(0x01)\n    /* \"contracts/1_Storage.sol\":585:596  stblock+240 */\n  tag_7\n  swap2\n  swap1\n  tag_8\n  jump\t// in\ntag_7:\n    /* \"contracts/1_Storage.sol\":577:584  etblock */\n  0x02\n    /* \"contracts/1_Storage.sol\":577:596  etblock=stblock+240 */\n  dup2\n  swap1\n  sstore\n  pop\n    /* \"contracts/1_Storage.sol\":612:619  1 ether */\n  0x0de0b6b3a7640000\n    /* \"contracts/1_Storage.sol\":605:611  bidInc */\n  0x06\n    /* \"contracts/1_Storage.sol\":605:619  bidInc=1 ether */\n  dup2\n  swap1\n  sstore\n  pop\n    /* \"contracts/1_Storage.sol\":71:2956  contract Storage {... */\n  jump(tag_9)\n    /* \"#utility.yul\":7:312   */\ntag_8:\n    /* \"#utility.yul\":47:50   */\n  0x00\n    /* \"#utility.yul\":66:86   */\n  tag_12\n    /* \"#utility.yul\":84:85   */\n  dup3\n    /* \"#utility.yul\":66:86   */\n  tag_13\n  jump\t// in\ntag_12:\n    /* \"#utility.yul\":61:86   */\n  swap2\n  pop\n    /* \"#utility.yul\":100:120   */\n  tag_14\n    /* \"#utility.yul\":118:119   */\n  dup4\n    /* \"#utility.yul\":100:120   */\n  tag_13\n  jump\t// in\ntag_14:\n    /* \"#utility.yul\":95:120   */\n  swap3\n  pop\n    /* \"#utility.yul\":254:255   */\n  dup3\n    /* \"#utility.yul\":186:252   */\n  0xffffffffffffffffffffffffffffffffffffffffffffffffffffffffffffffff\n    /* \"#utility.yul\":182:256   */\n  sub\n    /* \"#utility.yul\":179:180   */\n  dup3\n    /* \"#utility.yul\":176:257   */\n  gt\n    /* \"#utility.yul\":173:280   */\n  iszero\n  tag_15\n  jumpi\n    /* \"#utility.yul\":260:278   */\n  tag_16\n  tag_17\n  jump\t// in\ntag_16:\n    /* \"#utility.yul\":173:280   */\ntag_15:\n    /* \"#utility.yul\":304:305   */\n  dup3\n    /* \"#utility.yul\":301:302   */\n  dup3\n    /* \"#utility.yul\":297:306   */\n  add\n    /* \"#utility.yul\":290:306   */\n  swap1\n  pop\n    /* \"#utility.yul\":7:312   */\n  swap3\n  swap2\n  pop\n  pop\n  jump\t// out\n    /* \"#utility.yul\":318:395   */\ntag_13:\n    /* \"#utility.yul\":355:362   */\n  0x00\n    /* \"#utility.yul\":384:389   */\n  dup2\n    /* \"#utility.yul\":373:389   */\n  swap1\n  pop\n    /* \"#utility.yul\":318:395   */\n  swap2\n  swap1\n  pop\n  jump\t// out\n    /* \"#utility.yul\":401:581   */\ntag_17:\n    /* \"#utility.yul\":449:526   */\n  0x4e487b7100000000000000000000000000000000000000000000000000000000\n    /* \"#utility.yul\":446:447   */\n  0x00\n    /* \"#utility.yul\":439:527   */\n  mstore\n    /* \"#utility.yul\":546:550   */\n  0x11\n    /* \"#utility.yul\":543:544   */\n  0x04\n    /* \"#utility.yul\":536:551   */\n  mstore\n    /* \"#utility.yul\":570:574   */\n  0x24\n    /* \"#utility.yul\":567:568   */\n  0x00\n    /* \"#utility.yul\":560:575   */\n  revert\n    /* \"#utility.yul\":587:767   */\ntag_6:\n    /* \"#utility.yul\":635:712   */\n  0x4e487b7100000000000000000000000000000000000000000000000000000000\n    /* \"#utility.yul\":632:633   */\n  0x00\n    /* \"#utility.yul\":625:713   */\n  mstore\n    /* \"#utility.yul\":732:736   */\n  0x21\n    /* \"#utility.yul\":729:730   */\n  0x04\n    /* \"#utility.yul\":722:737   */\n  mstore\n    /* \"#utility.yul\":756:760   */\n  0x24\n    /* \"#utility.yul\":753:754   */\n  0x00\n    /* \"#utility.yul\":746:761   */\n  revert\n    /* \"contracts/1_Storage.sol\":71:2956  contract Storage {... */\ntag_9:\n  dataSize(sub_0)\n  dup1\n  dataOffset(sub_0)\n  0x00\n  codecopy\n  0x00\n  return\nstop\n\nsub_0: assembly {\n        /* \"contracts/1_Storage.sol\":71:2956  contract Storage {... */\n      mstore(0x40, 0x80)\n      jumpi(tag_1, lt(calldatasize, 0x04))\n      shr(0xe0, calldataload(0x00))\n      dup1\n      0x7fb45099\n      gt\n      tag_14\n      jumpi\n      dup1\n      0x7fb45099\n      eq\n      tag_8\n      jumpi\n      dup1\n      0x91f90157\n      eq\n      tag_9\n      jumpi\n      dup1\n      0x9d957d45\n      eq\n      tag_10\n      jumpi\n      dup1\n      0xa118be02\n      eq\n      tag_11\n      jumpi\n      dup1\n      0xd57bde79\n      eq\n      tag_12\n      jumpi\n      dup1\n      0xe94f55eb\n      eq\n      tag_13\n      jumpi\n      jump(tag_1)\n    tag_14:\n      dup1\n      0x15b24677\n      eq\n      tag_2\n      jumpi\n      dup1\n      0x1998aeef\n      eq\n      tag_3\n      jumpi\n      dup1\n      0x2352f320\n      eq\n      tag_4\n      jumpi\n      dup1\n      0x3fdceefd\n      eq\n      tag_5\n      jumpi\n      dup1\n      0x4f5150ca\n      eq\n      tag_6\n      jumpi\n      dup1\n      0x62ea82db\n      eq\n      tag_7\n      jumpi\n    tag_1:\n      0x00\n      dup1\n      revert\n        /* \"contracts/1_Storage.sol\":329:347  uint public bidInc */\n    tag_2:\n      callvalue\n      dup1\n      iszero\n      tag_15\n      jumpi\n      0x00\n      dup1\n      revert\n    tag_15:\n      pop\n      tag_16\n      tag_17\n      jump\t// in\n    tag_16:\n      mload(0x40)\n      tag_18\n      swap2\n      swap1\n      tag_19\n      jump\t// in\n    tag_18:\n      mload(0x40)\n      dup1\n      swap2\n      sub\n      swap1\n      return\n        /* \"contracts/1_Storage.sol\":1361:1949  function bid() payable public notOwner started beforeEnding{... */\n    tag_3:\n      tag_20\n      tag_21\n      jump\t// in\n    tag_20:\n      stop\n        /* \"contracts/1_Storage.sol\":1040:1122  function cancelAuc() public Owner{... */\n    tag_4:\n      callvalue\n      dup1\n      iszero\n      tag_22\n      jumpi\n      0x00\n      dup1\n      revert\n    tag_22:\n      pop\n      tag_23\n      tag_24\n      jump\t// in\n    tag_23:\n      stop\n        /* \"contracts/1_Storage.sol\":1127:1202  function endAuc() public Owner{... */\n    tag_5:\n      callvalue\n      dup1\n      iszero\n      tag_25\n      jumpi\n      0x00\n      dup1\n      revert\n    tag_25:\n      pop\n      tag_26\n      tag_27\n      jump\t// in\n    tag_26:\n      stop\n        /* \"contracts/1_Storage.sol\":294:323  uint public highestPayableBid */\n    tag_6:\n      callvalue\n      dup1\n      iszero\n      tag_28\n      jumpi\n      0x00\n      dup1\n      revert\n    tag_28:\n      pop\n      tag_29\n      tag_30\n      jump\t// in\n    tag_29:\n      mload(0x40)\n      tag_31\n      swap2\n      swap1\n      tag_19\n      jump\t// in\n    tag_31:\n      mload(0x40)\n      dup1\n      swap2\n      sub\n      swap1\n      return\n        /* \"contracts/1_Storage.sol\":396:431  mapping(address=> uint) public bids */\n    tag_7:\n      callvalue\n      dup1\n      iszero\n      tag_32\n      jumpi\n      0x00\n      dup1\n      revert\n    tag_32:\n      pop\n      tag_33\n      0x04\n      dup1\n      calldatasize\n      sub\n      dup2\n      add\n      swap1\n      tag_34\n      swap2\n      swap1\n      tag_35\n      jump\t// in\n    tag_34:\n      tag_36\n      jump\t// in\n    tag_33:\n      mload(0x40)\n      tag_37\n      swap2\n      swap1\n      tag_19\n      jump\t// in\n    tag_37:\n      mload(0x40)\n      dup1\n      swap2\n      sub\n      swap1\n      return\n        /* \"contracts/1_Storage.sol\":230:259  Auc_State public auctionState */\n    tag_8:\n      callvalue\n      dup1\n      iszero\n      tag_38\n      jumpi\n      0x00\n      dup1\n      revert\n    tag_38:\n      pop\n      tag_39\n      tag_40\n      jump\t// in\n    tag_39:\n      mload(0x40)\n      tag_41\n      swap2\n      swap1\n      tag_42\n      jump\t// in\n    tag_41:\n      mload(0x40)\n      dup1\n      swap2\n      sub\n      swap1\n      return\n        /* \"contracts/1_Storage.sol\":354:390  address payable public highestBidder */\n    tag_9:\n      callvalue\n      dup1\n      iszero\n      tag_43\n      jumpi\n      0x00\n      dup1\n      revert\n    tag_43:\n      pop\n      tag_44\n      tag_45\n      jump\t// in\n    tag_44:\n      mload(0x40)\n      tag_46\n      swap2\n      swap1\n      tag_47\n      jump\t// in\n    tag_46:\n      mload(0x40)\n      dup1\n      swap2\n      sub\n      swap1\n      return\n        /* \"contracts/1_Storage.sol\":152:171  uint public etblock */\n    tag_10:\n      callvalue\n      dup1\n      iszero\n      tag_48\n      jumpi\n      0x00\n      dup1\n      revert\n    tag_48:\n      pop\n      tag_49\n      tag_50\n      jump\t// in\n    tag_49:\n      mload(0x40)\n      tag_51\n      swap2\n      swap1\n      tag_19\n      jump\t// in\n    tag_51:\n      mload(0x40)\n      dup1\n      swap2\n      sub\n      swap1\n      return\n        /* \"contracts/1_Storage.sol\":127:146  uint public stblock */\n    tag_11:\n      callvalue\n      dup1\n      iszero\n      tag_52\n      jumpi\n      0x00\n      dup1\n      revert\n    tag_52:\n      pop\n      tag_53\n      tag_54\n      jump\t// in\n    tag_53:\n      mload(0x40)\n      tag_55\n      swap2\n      swap1\n      tag_19\n      jump\t// in\n    tag_55:\n      mload(0x40)\n      dup1\n      swap2\n      sub\n      swap1\n      return\n        /* \"contracts/1_Storage.sol\":266:288  uint public highestBid */\n    tag_12:\n      callvalue\n      dup1\n      iszero\n      tag_56\n      jumpi\n      0x00\n      dup1\n      revert\n    tag_56:\n      pop\n      tag_57\n      tag_58\n      jump\t// in\n    tag_57:\n      mload(0x40)\n      tag_59\n      swap2\n      swap1\n      tag_19\n      jump\t// in\n    tag_59:\n      mload(0x40)\n      dup1\n      swap2\n      sub\n      swap1\n      return\n        /* \"contracts/1_Storage.sol\":1960:2954  function fializeAuc() public{... */\n    tag_13:\n      callvalue\n      dup1\n      iszero\n      tag_60\n      jumpi\n      0x00\n      dup1\n      revert\n    tag_60:\n      pop\n      tag_61\n      tag_62\n      jump\t// in\n    tag_61:\n      stop\n        /* \"contracts/1_Storage.sol\":329:347  uint public bidInc */\n    tag_17:\n      sload(0x06)\n      dup2\n      jump\t// out\n        /* \"contracts/1_Storage.sol\":1361:1949  function bid() payable public notOwner started beforeEnding{... */\n    tag_21:\n        /* \"contracts/1_Storage.sol\":688:698  auctioneer */\n      0x00\n      dup1\n      sload\n      swap1\n      0x0100\n      exp\n      swap1\n      div\n      0xffffffffffffffffffffffffffffffffffffffff\n      and\n        /* \"contracts/1_Storage.sol\":674:698  msg.sender != auctioneer */\n      0xffffffffffffffffffffffffffffffffffffffff\n      and\n        /* \"contracts/1_Storage.sol\":674:684  msg.sender */\n      caller\n        /* \"contracts/1_Storage.sol\":674:698  msg.sender != auctioneer */\n      0xffffffffffffffffffffffffffffffffffffffff\n      and\n      eq\n      iszero\n        /* \"contracts/1_Storage.sol\":666:718  require(msg.sender != auctioneer,\"Owner cannot bid\") */\n      tag_64\n      jumpi\n      mload(0x40)\n      0x08c379a000000000000000000000000000000000000000000000000000000000\n      dup2\n      mstore\n      0x04\n      add\n      tag_65\n      swap1\n      tag_66\n      jump\t// in\n    tag_65:\n      mload(0x40)\n      dup1\n      swap2\n      sub\n      swap1\n      revert\n    tag_64:\n        /* \"contracts/1_Storage.sol\":912:919  stblock */\n      sload(0x01)\n        /* \"contracts/1_Storage.sol\":899:911  block.number */\n      number\n        /* \"contracts/1_Storage.sol\":899:919  block.number>stblock */\n      gt\n        /* \"contracts/1_Storage.sol\":891:920  require(block.number>stblock) */\n      tag_68\n      jumpi\n      0x00\n      dup1\n      revert\n    tag_68:\n        /* \"contracts/1_Storage.sol\":1008:1015  etblock */\n      sload(0x02)\n        /* \"contracts/1_Storage.sol\":995:1007  block.number */\n      number\n        /* \"contracts/1_Storage.sol\":995:1015  block.number<etblock */\n      lt\n        /* \"contracts/1_Storage.sol\":987:1016  require(block.number<etblock) */\n      tag_70\n      jumpi\n      0x00\n      dup1\n      revert\n    tag_70:\n        /* \"contracts/1_Storage.sol\":1452:1469  Auc_State.Running */\n      0x01\n        /* \"contracts/1_Storage.sol\":1438:1469  auctionState==Auc_State.Running */\n      0x03\n      dup2\n      gt\n      iszero\n      tag_72\n      jumpi\n      tag_73\n      tag_74\n      jump\t// in\n    tag_73:\n    tag_72:\n        /* \"contracts/1_Storage.sol\":1438:1450  auctionState */\n      0x03\n      0x00\n      swap1\n      sload\n      swap1\n      0x0100\n      exp\n      swap1\n      div\n      0xff\n      and\n        /* \"contracts/1_Storage.sol\":1438:1469  auctionState==Auc_State.Running */\n      0x03\n      dup2\n      gt\n      iszero\n      tag_75\n      jumpi\n      tag_76\n      tag_74\n      jump\t// in\n    tag_76:\n    tag_75:\n      eq\n        /* \"contracts/1_Storage.sol\":1430:1470  require(auctionState==Auc_State.Running) */\n      tag_77\n      jumpi\n      0x00\n      dup1\n      revert\n    tag_77:\n        /* \"contracts/1_Storage.sol\":1499:1506  1 ether */\n      0x0de0b6b3a7640000\n        /* \"contracts/1_Storage.sol\":1488:1497  msg.value */\n      callvalue\n        /* \"contracts/1_Storage.sol\":1488:1506  msg.value>=1 ether */\n      lt\n      iszero\n        /* \"contracts/1_Storage.sol\":1480:1507  require(msg.value>=1 ether) */\n      tag_78\n      jumpi\n      0x00\n      dup1\n      revert\n    tag_78:\n        /* \"contracts/1_Storage.sol\":1518:1533  uint currentBid */\n      0x00\n        /* \"contracts/1_Storage.sol\":1554:1563  msg.value */\n      callvalue\n        /* \"contracts/1_Storage.sol\":1535:1539  bids */\n      0x08\n        /* \"contracts/1_Storage.sol\":1535:1551  bids[msg.sender] */\n      0x00\n        /* \"contracts/1_Storage.sol\":1540:1550  msg.sender */\n      caller\n        /* \"contracts/1_Storage.sol\":1535:1551  bids[msg.sender] */\n      0xffffffffffffffffffffffffffffffffffffffff\n      and\n      0xffffffffffffffffffffffffffffffffffffffff\n      and\n      dup2\n      mstore\n      0x20\n      add\n      swap1\n      dup2\n      mstore\n      0x20\n      add\n      0x00\n      keccak256\n      sload\n        /* \"contracts/1_Storage.sol\":1535:1563  bids[msg.sender] + msg.value */\n      tag_79\n      swap2\n      swap1\n      tag_80\n      jump\t// in\n    tag_79:\n        /* \"contracts/1_Storage.sol\":1518:1563  uint currentBid =bids[msg.sender] + msg.value */\n      swap1\n      pop\n        /* \"contracts/1_Storage.sol\":1593:1610  highestPayableBid */\n      sload(0x05)\n        /* \"contracts/1_Storage.sol\":1582:1592  currentBid */\n      dup2\n        /* \"contracts/1_Storage.sol\":1582:1610  currentBid>highestPayableBid */\n      gt\n        /* \"contracts/1_Storage.sol\":1574:1611  require(currentBid>highestPayableBid) */\n      tag_81\n      jumpi\n      0x00\n      dup1\n      revert\n    tag_81:\n        /* \"contracts/1_Storage.sol\":1639:1649  currentBid */\n      dup1\n        /* \"contracts/1_Storage.sol\":1622:1626  bids */\n      0x08\n        /* \"contracts/1_Storage.sol\":1622:1638  bids[msg.sender] */\n      0x00\n        /* \"contracts/1_Storage.sol\":1627:1637  msg.sender */\n      caller\n        /* \"contracts/1_Storage.sol\":1622:1638  bids[msg.sender] */\n      0xffffffffffffffffffffffffffffffffffffffff\n      and\n      0xffffffffffffffffffffffffffffffffffffffff\n      and\n      dup2\n      mstore\n      0x20\n      add\n      swap1\n      dup2\n      mstore\n      0x20\n      add\n      0x00\n      keccak256\n        /* \"contracts/1_Storage.sol\":1622:1649  bids[msg.sender]=currentBid */\n      dup2\n      swap1\n      sstore\n      pop\n        /* \"contracts/1_Storage.sol\":1674:1678  bids */\n      0x08\n        /* \"contracts/1_Storage.sol\":1674:1693  bids[highestBidder] */\n      0x00\n        /* \"contracts/1_Storage.sol\":1679:1692  highestBidder */\n      0x07\n      0x00\n      swap1\n      sload\n      swap1\n      0x0100\n      exp\n      swap1\n      div\n      0xffffffffffffffffffffffffffffffffffffffff\n      and\n        /* \"contracts/1_Storage.sol\":1674:1693  bids[highestBidder] */\n      0xffffffffffffffffffffffffffffffffffffffff\n      and\n      0xffffffffffffffffffffffffffffffffffffffff\n      and\n      dup2\n      mstore\n      0x20\n      add\n      swap1\n      dup2\n      mstore\n      0x20\n      add\n      0x00\n      keccak256\n      sload\n        /* \"contracts/1_Storage.sol\":1663:1673  currentBid */\n      dup2\n        /* \"contracts/1_Storage.sol\":1663:1693  currentBid<bids[highestBidder] */\n      lt\n        /* \"contracts/1_Storage.sol\":1660:1943  if(currentBid<bids[highestBidder]){... */\n      iszero\n      tag_82\n      jumpi\n        /* \"contracts/1_Storage.sol\":1727:1769  min(currentBid+bidInc,bids[highestBidder]) */\n      tag_83\n        /* \"contracts/1_Storage.sol\":1742:1748  bidInc */\n      sload(0x06)\n        /* \"contracts/1_Storage.sol\":1731:1741  currentBid */\n      dup3\n        /* \"contracts/1_Storage.sol\":1731:1748  currentBid+bidInc */\n      tag_84\n      swap2\n      swap1\n      tag_80\n      jump\t// in\n    tag_84:\n        /* \"contracts/1_Storage.sol\":1749:1753  bids */\n      0x08\n        /* \"contracts/1_Storage.sol\":1749:1768  bids[highestBidder] */\n      0x00\n        /* \"contracts/1_Storage.sol\":1754:1767  highestBidder */\n      0x07\n      0x00\n      swap1\n      sload\n      swap1\n      0x0100\n      exp\n      swap1\n      div\n      0xffffffffffffffffffffffffffffffffffffffff\n      and\n        /* \"contracts/1_Storage.sol\":1749:1768  bids[highestBidder] */\n      0xffffffffffffffffffffffffffffffffffffffff\n      and\n      0xffffffffffffffffffffffffffffffffffffffff\n      and\n      dup2\n      mstore\n      0x20\n      add\n      swap1\n      dup2\n      mstore\n      0x20\n      add\n      0x00\n      keccak256\n      sload\n        /* \"contracts/1_Storage.sol\":1727:1730  min */\n      tag_85\n        /* \"contracts/1_Storage.sol\":1727:1769  min(currentBid+bidInc,bids[highestBidder]) */\n      jump\t// in\n    tag_83:\n        /* \"contracts/1_Storage.sol\":1708:1725  highestPayableBid */\n      0x05\n        /* \"contracts/1_Storage.sol\":1708:1769  highestPayableBid =min(currentBid+bidInc,bids[highestBidder]) */\n      dup2\n      swap1\n      sstore\n      pop\n        /* \"contracts/1_Storage.sol\":1660:1943  if(currentBid<bids[highestBidder]){... */\n      jump(tag_86)\n    tag_82:\n        /* \"contracts/1_Storage.sol\":1839:1881  min(currentBid,bids[highestBidder]+bidInc) */\n      tag_87\n        /* \"contracts/1_Storage.sol\":1843:1853  currentBid */\n      dup2\n        /* \"contracts/1_Storage.sol\":1874:1880  bidInc */\n      sload(0x06)\n        /* \"contracts/1_Storage.sol\":1854:1858  bids */\n      0x08\n        /* \"contracts/1_Storage.sol\":1854:1873  bids[highestBidder] */\n      0x00\n        /* \"contracts/1_Storage.sol\":1859:1872  highestBidder */\n      0x07\n      0x00\n      swap1\n      sload\n      swap1\n      0x0100\n      exp\n      swap1\n      div\n      0xffffffffffffffffffffffffffffffffffffffff\n      and\n        /* \"contracts/1_Storage.sol\":1854:1873  bids[highestBidder] */\n      0xffffffffffffffffffffffffffffffffffffffff\n      and\n      0xffffffffffffffffffffffffffffffffffffffff\n      and\n      dup2\n      mstore\n      0x20\n      add\n      swap1\n      dup2\n      mstore\n      0x20\n      add\n      0x00\n      keccak256\n      sload\n        /* \"contracts/1_Storage.sol\":1854:1880  bids[highestBidder]+bidInc */\n      tag_88\n      swap2\n      swap1\n      tag_80\n      jump\t// in\n    tag_88:\n        /* \"contracts/1_Storage.sol\":1839:1842  min */\n      tag_85\n        /* \"contracts/1_Storage.sol\":1839:1881  min(currentBid,bids[highestBidder]+bidInc) */\n      jump\t// in\n    tag_87:\n        /* \"contracts/1_Storage.sol\":1820:1837  highestPayableBid */\n      0x05\n        /* \"contracts/1_Storage.sol\":1820:1881  highestPayableBid =min(currentBid,bids[highestBidder]+bidInc) */\n      dup2\n      swap1\n      sstore\n      pop\n        /* \"contracts/1_Storage.sol\":1921:1931  msg.sender */\n      caller\n        /* \"contracts/1_Storage.sol\":1899:1912  highestBidder */\n      0x07\n      0x00\n        /* \"contracts/1_Storage.sol\":1899:1932  highestBidder=payable(msg.sender) */\n      0x0100\n      exp\n      dup2\n      sload\n      dup2\n      0xffffffffffffffffffffffffffffffffffffffff\n      mul\n      not\n      and\n      swap1\n      dup4\n      0xffffffffffffffffffffffffffffffffffffffff\n      and\n      mul\n      or\n      swap1\n      sstore\n      pop\n        /* \"contracts/1_Storage.sol\":1660:1943  if(currentBid<bids[highestBidder]){... */\n    tag_86:\n        /* \"contracts/1_Storage.sol\":1420:1949  {... */\n      pop\n        /* \"contracts/1_Storage.sol\":1361:1949  function bid() payable public notOwner started beforeEnding{... */\n      jump\t// out\n        /* \"contracts/1_Storage.sol\":1040:1122  function cancelAuc() public Owner{... */\n    tag_24:\n        /* \"contracts/1_Storage.sol\":799:809  auctioneer */\n      0x00\n      dup1\n      sload\n      swap1\n      0x0100\n      exp\n      swap1\n      div\n      0xffffffffffffffffffffffffffffffffffffffff\n      and\n        /* \"contracts/1_Storage.sol\":785:809  msg.sender == auctioneer */\n      0xffffffffffffffffffffffffffffffffffffffff\n      and\n        /* \"contracts/1_Storage.sol\":785:795  msg.sender */\n      caller\n        /* \"contracts/1_Storage.sol\":785:809  msg.sender == auctioneer */\n      0xffffffffffffffffffffffffffffffffffffffff\n      and\n      eq\n        /* \"contracts/1_Storage.sol\":777:829  require(msg.sender == auctioneer,\"Owner cannot bid\") */\n      tag_90\n      jumpi\n      mload(0x40)\n      0x08c379a000000000000000000000000000000000000000000000000000000000\n      dup2\n      mstore\n      0x04\n      add\n      tag_91\n      swap1\n      tag_66\n      jump\t// in\n    tag_91:\n      mload(0x40)\n      dup1\n      swap2\n      sub\n      swap1\n      revert\n    tag_90:\n        /* \"contracts/1_Storage.sol\":1096:1115  Auc_State.Cancelled */\n      0x03\n        /* \"contracts/1_Storage.sol\":1083:1095  auctionState */\n      dup1\n      0x00\n        /* \"contracts/1_Storage.sol\":1083:1115  auctionState=Auc_State.Cancelled */\n      0x0100\n      exp\n      dup2\n      sload\n      dup2\n      0xff\n      mul\n      not\n      and\n      swap1\n      dup4\n      0x03\n      dup2\n      gt\n      iszero\n      tag_93\n      jumpi\n      tag_94\n      tag_74\n      jump\t// in\n    tag_94:\n    tag_93:\n      mul\n      or\n      swap1\n      sstore\n      pop\n        /* \"contracts/1_Storage.sol\":1040:1122  function cancelAuc() public Owner{... */\n      jump\t// out\n        /* \"contracts/1_Storage.sol\":1127:1202  function endAuc() public Owner{... */\n    tag_27:\n        /* \"contracts/1_Storage.sol\":799:809  auctioneer */\n      0x00\n      dup1\n      sload\n      swap1\n      0x0100\n      exp\n      swap1\n      div\n      0xffffffffffffffffffffffffffffffffffffffff\n      and\n        /* \"contracts/1_Storage.sol\":785:809  msg.sender == auctioneer */\n      0xffffffffffffffffffffffffffffffffffffffff\n      and\n        /* \"contracts/1_Storage.sol\":785:795  msg.sender */\n      caller\n        /* \"contracts/1_Storage.sol\":785:809  msg.sender == auctioneer */\n      0xffffffffffffffffffffffffffffffffffffffff\n      and\n      eq\n        /* \"contracts/1_Storage.sol\":777:829  require(msg.sender == auctioneer,\"Owner cannot bid\") */\n      tag_96\n      jumpi\n      mload(0x40)\n      0x08c379a000000000000000000000000000000000000000000000000000000000\n      dup2\n      mstore\n      0x04\n      add\n      tag_97\n      swap1\n      tag_66\n      jump\t// in\n    tag_97:\n      mload(0x40)\n      dup1\n      swap2\n      sub\n      swap1\n      revert\n    tag_96:\n        /* \"contracts/1_Storage.sol\":1180:1195  Auc_State.Ended */\n      0x02\n        /* \"contracts/1_Storage.sol\":1167:1179  auctionState */\n      0x03\n      0x00\n        /* \"contracts/1_Storage.sol\":1167:1195  auctionState=Auc_State.Ended */\n      0x0100\n      exp\n      dup2\n      sload\n      dup2\n      0xff\n      mul\n      not\n      and\n      swap1\n      dup4\n      0x03\n      dup2\n      gt\n      iszero\n      tag_99\n      jumpi\n      tag_100\n      tag_74\n      jump\t// in\n    tag_100:\n    tag_99:\n      mul\n      or\n      swap1\n      sstore\n      pop\n        /* \"contracts/1_Storage.sol\":1127:1202  function endAuc() public Owner{... */\n      jump\t// out\n        /* \"contracts/1_Storage.sol\":294:323  uint public highestPayableBid */\n    tag_30:\n      sload(0x05)\n      dup2\n      jump\t// out\n        /* \"contracts/1_Storage.sol\":396:431  mapping(address=> uint) public bids */\n    tag_36:\n      mstore(0x20, 0x08)\n      dup1\n      0x00\n      mstore\n      keccak256(0x00, 0x40)\n      0x00\n      swap2\n      pop\n      swap1\n      pop\n      sload\n      dup2\n      jump\t// out\n        /* \"contracts/1_Storage.sol\":230:259  Auc_State public auctionState */\n    tag_40:\n      0x03\n      0x00\n      swap1\n      sload\n      swap1\n      0x0100\n      exp\n      swap1\n      div\n      0xff\n      and\n      dup2\n      jump\t// out\n        /* \"contracts/1_Storage.sol\":354:390  address payable public highestBidder */\n    tag_45:\n      0x07\n      0x00\n      swap1\n      sload\n      swap1\n      0x0100\n      exp\n      swap1\n      div\n      0xffffffffffffffffffffffffffffffffffffffff\n      and\n      dup2\n      jump\t// out\n        /* \"contracts/1_Storage.sol\":152:171  uint public etblock */\n    tag_50:\n      sload(0x02)\n      dup2\n      jump\t// out\n        /* \"contracts/1_Storage.sol\":127:146  uint public stblock */\n    tag_54:\n      sload(0x01)\n      dup2\n      jump\t// out\n        /* \"contracts/1_Storage.sol\":266:288  uint public highestBid */\n    tag_58:\n      sload(0x04)\n      dup2\n      jump\t// out\n        /* \"contracts/1_Storage.sol\":1960:2954  function fializeAuc() public{... */\n    tag_62:\n        /* \"contracts/1_Storage.sol\":2021:2040  Auc_State.Cancelled */\n      0x03\n        /* \"contracts/1_Storage.sol\":2006:2040  auctionState== Auc_State.Cancelled */\n      dup1\n      dup2\n      gt\n      iszero\n      tag_102\n      jumpi\n      tag_103\n      tag_74\n      jump\t// in\n    tag_103:\n    tag_102:\n        /* \"contracts/1_Storage.sol\":2006:2018  auctionState */\n      0x03\n      0x00\n      swap1\n      sload\n      swap1\n      0x0100\n      exp\n      swap1\n      div\n      0xff\n      and\n        /* \"contracts/1_Storage.sol\":2006:2040  auctionState== Auc_State.Cancelled */\n      0x03\n      dup2\n      gt\n      iszero\n      tag_104\n      jumpi\n      tag_105\n      tag_74\n      jump\t// in\n    tag_105:\n    tag_104:\n      eq\n        /* \"contracts/1_Storage.sol\":2006:2074  auctionState== Auc_State.Cancelled || auctionState== Auc_State.Ended */\n      dup1\n      tag_106\n      jumpi\n      pop\n        /* \"contracts/1_Storage.sol\":2059:2074  Auc_State.Ended */\n      0x02\n        /* \"contracts/1_Storage.sol\":2044:2074  auctionState== Auc_State.Ended */\n      0x03\n      dup2\n      gt\n      iszero\n      tag_107\n      jumpi\n      tag_108\n      tag_74\n      jump\t// in\n    tag_108:\n    tag_107:\n        /* \"contracts/1_Storage.sol\":2044:2056  auctionState */\n      0x03\n      0x00\n      swap1\n      sload\n      swap1\n      0x0100\n      exp\n      swap1\n      div\n      0xff\n      and\n        /* \"contracts/1_Storage.sol\":2044:2074  auctionState== Auc_State.Ended */\n      0x03\n      dup2\n      gt\n      iszero\n      tag_109\n      jumpi\n      tag_110\n      tag_74\n      jump\t// in\n    tag_110:\n    tag_109:\n      eq\n        /* \"contracts/1_Storage.sol\":2006:2074  auctionState== Auc_State.Cancelled || auctionState== Auc_State.Ended */\n    tag_106:\n        /* \"contracts/1_Storage.sol\":2006:2098  auctionState== Auc_State.Cancelled || auctionState== Auc_State.Ended || block.number>etblock */\n      dup1\n      tag_111\n      jumpi\n      pop\n        /* \"contracts/1_Storage.sol\":2091:2098  etblock */\n      sload(0x02)\n        /* \"contracts/1_Storage.sol\":2078:2090  block.number */\n      number\n        /* \"contracts/1_Storage.sol\":2078:2098  block.number>etblock */\n      gt\n        /* \"contracts/1_Storage.sol\":2006:2098  auctionState== Auc_State.Cancelled || auctionState== Auc_State.Ended || block.number>etblock */\n    tag_111:\n        /* \"contracts/1_Storage.sol\":1998:2100  require(auctionState== Auc_State.Cancelled || auctionState== Auc_State.Ended || block.number>etblock ) */\n      tag_112\n      jumpi\n      0x00\n      dup1\n      revert\n    tag_112:\n        /* \"contracts/1_Storage.sol\":2132:2142  auctioneer */\n      0x00\n      dup1\n      sload\n      swap1\n      0x0100\n      exp\n      swap1\n      div\n      0xffffffffffffffffffffffffffffffffffffffff\n      and\n        /* \"contracts/1_Storage.sol\":2118:2142  msg.sender == auctioneer */\n      0xffffffffffffffffffffffffffffffffffffffff\n      and\n        /* \"contracts/1_Storage.sol\":2118:2128  msg.sender */\n      caller\n        /* \"contracts/1_Storage.sol\":2118:2142  msg.sender == auctioneer */\n      0xffffffffffffffffffffffffffffffffffffffff\n      and\n      eq\n        /* \"contracts/1_Storage.sol\":2118:2162  msg.sender == auctioneer||bids[msg.sender]>0 */\n      dup1\n      tag_113\n      jumpi\n      pop\n        /* \"contracts/1_Storage.sol\":2161:2162  0 */\n      0x00\n        /* \"contracts/1_Storage.sol\":2144:2148  bids */\n      0x08\n        /* \"contracts/1_Storage.sol\":2144:2160  bids[msg.sender] */\n      0x00\n        /* \"contracts/1_Storage.sol\":2149:2159  msg.sender */\n      caller\n        /* \"contracts/1_Storage.sol\":2144:2160  bids[msg.sender] */\n      0xffffffffffffffffffffffffffffffffffffffff\n      and\n      0xffffffffffffffffffffffffffffffffffffffff\n      and\n      dup2\n      mstore\n      0x20\n      add\n      swap1\n      dup2\n      mstore\n      0x20\n      add\n      0x00\n      keccak256\n      sload\n        /* \"contracts/1_Storage.sol\":2144:2162  bids[msg.sender]>0 */\n      gt\n        /* \"contracts/1_Storage.sol\":2118:2162  msg.sender == auctioneer||bids[msg.sender]>0 */\n    tag_113:\n        /* \"contracts/1_Storage.sol\":2110:2163  require(msg.sender == auctioneer||bids[msg.sender]>0) */\n      tag_114\n      jumpi\n      0x00\n      dup1\n      revert\n    tag_114:\n        /* \"contracts/1_Storage.sol\":2174:2196  address payable person */\n      0x00\n        /* \"contracts/1_Storage.sol\":2206:2216  uint value */\n      dup1\n        /* \"contracts/1_Storage.sol\":2245:2264  Auc_State.Cancelled */\n      0x03\n        /* \"contracts/1_Storage.sol\":2230:2264  auctionState== Auc_State.Cancelled */\n      dup1\n      dup2\n      gt\n      iszero\n      tag_115\n      jumpi\n      tag_116\n      tag_74\n      jump\t// in\n    tag_116:\n    tag_115:\n        /* \"contracts/1_Storage.sol\":2230:2242  auctionState */\n      0x03\n      0x00\n      swap1\n      sload\n      swap1\n      0x0100\n      exp\n      swap1\n      div\n      0xff\n      and\n        /* \"contracts/1_Storage.sol\":2230:2264  auctionState== Auc_State.Cancelled */\n      0x03\n      dup2\n      gt\n      iszero\n      tag_117\n      jumpi\n      tag_118\n      tag_74\n      jump\t// in\n    tag_118:\n    tag_117:\n      eq\n        /* \"contracts/1_Storage.sol\":2227:2888  if(auctionState== Auc_State.Cancelled){... */\n      iszero\n      tag_119\n      jumpi\n        /* \"contracts/1_Storage.sol\":2295:2305  msg.sender */\n      caller\n        /* \"contracts/1_Storage.sol\":2279:2306  person= payable(msg.sender) */\n      swap2\n      pop\n        /* \"contracts/1_Storage.sol\":2327:2331  bids */\n      0x08\n        /* \"contracts/1_Storage.sol\":2327:2343  bids[msg.sender] */\n      0x00\n        /* \"contracts/1_Storage.sol\":2332:2342  msg.sender */\n      caller\n        /* \"contracts/1_Storage.sol\":2327:2343  bids[msg.sender] */\n      0xffffffffffffffffffffffffffffffffffffffff\n      and\n      0xffffffffffffffffffffffffffffffffffffffff\n      and\n      dup2\n      mstore\n      0x20\n      add\n      swap1\n      dup2\n      mstore\n      0x20\n      add\n      0x00\n      keccak256\n      sload\n        /* \"contracts/1_Storage.sol\":2320:2343  value= bids[msg.sender] */\n      swap1\n      pop\n        /* \"contracts/1_Storage.sol\":2227:2888  if(auctionState== Auc_State.Cancelled){... */\n      jump(tag_120)\n    tag_119:\n        /* \"contracts/1_Storage.sol\":2397:2407  auctioneer */\n      0x00\n      dup1\n      sload\n      swap1\n      0x0100\n      exp\n      swap1\n      div\n      0xffffffffffffffffffffffffffffffffffffffff\n      and\n        /* \"contracts/1_Storage.sol\":2384:2407  msg.sender== auctioneer */\n      0xffffffffffffffffffffffffffffffffffffffff\n      and\n        /* \"contracts/1_Storage.sol\":2384:2394  msg.sender */\n      caller\n        /* \"contracts/1_Storage.sol\":2384:2407  msg.sender== auctioneer */\n      0xffffffffffffffffffffffffffffffffffffffff\n      and\n      eq\n        /* \"contracts/1_Storage.sol\":2381:2878  if(msg.sender== auctioneer)... */\n      iszero\n      tag_121\n      jumpi\n        /* \"contracts/1_Storage.sol\":2447:2457  auctioneer */\n      0x00\n      dup1\n      sload\n      swap1\n      0x0100\n      exp\n      swap1\n      div\n      0xffffffffffffffffffffffffffffffffffffffff\n      and\n        /* \"contracts/1_Storage.sol\":2439:2457  person =auctioneer */\n      swap2\n      pop\n        /* \"contracts/1_Storage.sol\":2483:2500  highestPayableBid */\n      sload(0x05)\n        /* \"contracts/1_Storage.sol\":2475:2500  value = highestPayableBid */\n      swap1\n      pop\n        /* \"contracts/1_Storage.sol\":2381:2878  if(msg.sender== auctioneer)... */\n      jump(tag_122)\n    tag_121:\n        /* \"contracts/1_Storage.sol\":2582:2595  highestBidder */\n      0x07\n      0x00\n      swap1\n      sload\n      swap1\n      0x0100\n      exp\n      swap1\n      div\n      0xffffffffffffffffffffffffffffffffffffffff\n      and\n        /* \"contracts/1_Storage.sol\":2569:2595  msg.sender== highestBidder */\n      0xffffffffffffffffffffffffffffffffffffffff\n      and\n        /* \"contracts/1_Storage.sol\":2569:2579  msg.sender */\n      caller\n        /* \"contracts/1_Storage.sol\":2569:2595  msg.sender== highestBidder */\n      0xffffffffffffffffffffffffffffffffffffffff\n      and\n      eq\n        /* \"contracts/1_Storage.sol\":2566:2863  if(msg.sender== highestBidder){... */\n      iszero\n      tag_123\n      jumpi\n        /* \"contracts/1_Storage.sol\":2627:2640  highestBidder */\n      0x07\n      0x00\n      swap1\n      sload\n      swap1\n      0x0100\n      exp\n      swap1\n      div\n      0xffffffffffffffffffffffffffffffffffffffff\n      and\n        /* \"contracts/1_Storage.sol\":2618:2640  person = highestBidder */\n      swap2\n      pop\n        /* \"contracts/1_Storage.sol\":2690:2707  highestPayableBid */\n      sload(0x05)\n        /* \"contracts/1_Storage.sol\":2670:2674  bids */\n      0x08\n        /* \"contracts/1_Storage.sol\":2670:2689  bids[highestBidder] */\n      0x00\n        /* \"contracts/1_Storage.sol\":2675:2688  highestBidder */\n      0x07\n      0x00\n      swap1\n      sload\n      swap1\n      0x0100\n      exp\n      swap1\n      div\n      0xffffffffffffffffffffffffffffffffffffffff\n      and\n        /* \"contracts/1_Storage.sol\":2670:2689  bids[highestBidder] */\n      0xffffffffffffffffffffffffffffffffffffffff\n      and\n      0xffffffffffffffffffffffffffffffffffffffff\n      and\n      dup2\n      mstore\n      0x20\n      add\n      swap1\n      dup2\n      mstore\n      0x20\n      add\n      0x00\n      keccak256\n      sload\n        /* \"contracts/1_Storage.sol\":2670:2707  bids[highestBidder]-highestPayableBid */\n      tag_124\n      swap2\n      swap1\n      tag_125\n      jump\t// in\n    tag_124:\n        /* \"contracts/1_Storage.sol\":2662:2707  value = bids[highestBidder]-highestPayableBid */\n      swap1\n      pop\n        /* \"contracts/1_Storage.sol\":2566:2863  if(msg.sender== highestBidder){... */\n      jump(tag_126)\n    tag_123:\n        /* \"contracts/1_Storage.sol\":2786:2796  msg.sender */\n      caller\n        /* \"contracts/1_Storage.sol\":2769:2797  person = payable(msg.sender) */\n      swap2\n      pop\n        /* \"contracts/1_Storage.sol\":2827:2831  bids */\n      0x08\n        /* \"contracts/1_Storage.sol\":2827:2843  bids[msg.sender] */\n      0x00\n        /* \"contracts/1_Storage.sol\":2832:2842  msg.sender */\n      caller\n        /* \"contracts/1_Storage.sol\":2827:2843  bids[msg.sender] */\n      0xffffffffffffffffffffffffffffffffffffffff\n      and\n      0xffffffffffffffffffffffffffffffffffffffff\n      and\n      dup2\n      mstore\n      0x20\n      add\n      swap1\n      dup2\n      mstore\n      0x20\n      add\n      0x00\n      keccak256\n      sload\n        /* \"contracts/1_Storage.sol\":2819:2843  value = bids[msg.sender] */\n      swap1\n      pop\n        /* \"contracts/1_Storage.sol\":2566:2863  if(msg.sender== highestBidder){... */\n    tag_126:\n        /* \"contracts/1_Storage.sol\":2381:2878  if(msg.sender== auctioneer)... */\n    tag_122:\n        /* \"contracts/1_Storage.sol\":2227:2888  if(auctionState== Auc_State.Cancelled){... */\n    tag_120:\n        /* \"contracts/1_Storage.sol\":2914:2915  0 */\n      0x00\n        /* \"contracts/1_Storage.sol\":2897:2901  bids */\n      0x08\n        /* \"contracts/1_Storage.sol\":2897:2913  bids[msg.sender] */\n      0x00\n        /* \"contracts/1_Storage.sol\":2902:2912  msg.sender */\n      caller\n        /* \"contracts/1_Storage.sol\":2897:2913  bids[msg.sender] */\n      0xffffffffffffffffffffffffffffffffffffffff\n      and\n      0xffffffffffffffffffffffffffffffffffffffff\n      and\n      dup2\n      mstore\n      0x20\n      add\n      swap1\n      dup2\n      mstore\n      0x20\n      add\n      0x00\n      keccak256\n        /* \"contracts/1_Storage.sol\":2897:2915  bids[msg.sender]=0 */\n      dup2\n      swap1\n      sstore\n      pop\n        /* \"contracts/1_Storage.sol\":2925:2931  person */\n      dup2\n        /* \"contracts/1_Storage.sol\":2925:2940  person.transfer */\n      0xffffffffffffffffffffffffffffffffffffffff\n      and\n        /* \"contracts/1_Storage.sol\":2925:2947  person.transfer(value) */\n      0x08fc\n        /* \"contracts/1_Storage.sol\":2941:2946  value */\n      dup3\n        /* \"contracts/1_Storage.sol\":2925:2947  person.transfer(value) */\n      swap1\n      dup2\n      iszero\n      mul\n      swap1\n      mload(0x40)\n      0x00\n      mload(0x40)\n      dup1\n      dup4\n      sub\n      dup2\n      dup6\n      dup9\n      dup9\n      call\n      swap4\n      pop\n      pop\n      pop\n      pop\n      iszero\n      dup1\n      iszero\n      tag_128\n      jumpi\n      returndatasize\n      0x00\n      dup1\n      returndatacopy\n      revert(0x00, returndatasize)\n    tag_128:\n      pop\n        /* \"contracts/1_Storage.sol\":1988:2954  {... */\n      pop\n      pop\n        /* \"contracts/1_Storage.sol\":1960:2954  function fializeAuc() public{... */\n      jump\t// out\n        /* \"contracts/1_Storage.sol\":1207:1356  function min(uint a, uint b) pure private returns(uint)... */\n    tag_85:\n        /* \"contracts/1_Storage.sol\":1257:1261  uint */\n      0x00\n        /* \"contracts/1_Storage.sol\":1287:1288  b */\n      dup2\n        /* \"contracts/1_Storage.sol\":1284:1285  a */\n      dup4\n        /* \"contracts/1_Storage.sol\":1284:1288  a<=b */\n      gt\n        /* \"contracts/1_Storage.sol\":1281:1349  if(a<=b)... */\n      tag_130\n      jumpi\n        /* \"contracts/1_Storage.sol\":1309:1310  a */\n      dup3\n        /* \"contracts/1_Storage.sol\":1302:1310  return a */\n      swap1\n      pop\n      jump(tag_129)\n        /* \"contracts/1_Storage.sol\":1281:1349  if(a<=b)... */\n    tag_130:\n        /* \"contracts/1_Storage.sol\":1348:1349  b */\n      dup2\n        /* \"contracts/1_Storage.sol\":1341:1349  return b */\n      swap1\n      pop\n        /* \"contracts/1_Storage.sol\":1207:1356  function min(uint a, uint b) pure private returns(uint)... */\n    tag_129:\n      swap3\n      swap2\n      pop\n      pop\n      jump\t// out\n        /* \"#utility.yul\":7:146   */\n    tag_133:\n        /* \"#utility.yul\":53:58   */\n      0x00\n        /* \"#utility.yul\":91:97   */\n      dup2\n        /* \"#utility.yul\":78:98   */\n      calldataload\n        /* \"#utility.yul\":69:98   */\n      swap1\n      pop\n        /* \"#utility.yul\":107:140   */\n      tag_135\n        /* \"#utility.yul\":134:139   */\n      dup2\n        /* \"#utility.yul\":107:140   */\n      tag_136\n      jump\t// in\n    tag_135:\n        /* \"#utility.yul\":7:146   */\n      swap3\n      swap2\n      pop\n      pop\n      jump\t// out\n        /* \"#utility.yul\":152:481   */\n    tag_35:\n        /* \"#utility.yul\":211:217   */\n      0x00\n        /* \"#utility.yul\":260:262   */\n      0x20\n        /* \"#utility.yul\":248:257   */\n      dup3\n        /* \"#utility.yul\":239:246   */\n      dup5\n        /* \"#utility.yul\":235:258   */\n      sub\n        /* \"#utility.yul\":231:263   */\n      slt\n        /* \"#utility.yul\":228:347   */\n      iszero\n      tag_138\n      jumpi\n        /* \"#utility.yul\":266:345   */\n      tag_139\n      tag_140\n      jump\t// in\n    tag_139:\n        /* \"#utility.yul\":228:347   */\n    tag_138:\n        /* \"#utility.yul\":386:387   */\n      0x00\n        /* \"#utility.yul\":411:464   */\n      tag_141\n        /* \"#utility.yul\":456:463   */\n      dup5\n        /* \"#utility.yul\":447:453   */\n      dup3\n        /* \"#utility.yul\":436:445   */\n      dup6\n        /* \"#utility.yul\":432:454   */\n      add\n        /* \"#utility.yul\":411:464   */\n      tag_133\n      jump\t// in\n    tag_141:\n        /* \"#utility.yul\":401:464   */\n      swap2\n      pop\n        /* \"#utility.yul\":357:474   */\n      pop\n        /* \"#utility.yul\":152:481   */\n      swap3\n      swap2\n      pop\n      pop\n      jump\t// out\n        /* \"#utility.yul\":487:629   */\n    tag_142:\n        /* \"#utility.yul\":590:622   */\n      tag_144\n        /* \"#utility.yul\":616:621   */\n      dup2\n        /* \"#utility.yul\":590:622   */\n      tag_145\n      jump\t// in\n    tag_144:\n        /* \"#utility.yul\":585:588   */\n      dup3\n        /* \"#utility.yul\":578:623   */\n      mstore\n        /* \"#utility.yul\":487:629   */\n      pop\n      pop\n      jump\t// out\n        /* \"#utility.yul\":635:786   */\n    tag_146:\n        /* \"#utility.yul\":732:779   */\n      tag_148\n        /* \"#utility.yul\":773:778   */\n      dup2\n        /* \"#utility.yul\":732:779   */\n      tag_149\n      jump\t// in\n    tag_148:\n        /* \"#utility.yul\":727:730   */\n      dup3\n        /* \"#utility.yul\":720:780   */\n      mstore\n        /* \"#utility.yul\":635:786   */\n      pop\n      pop\n      jump\t// out\n        /* \"#utility.yul\":792:1158   */\n    tag_150:\n        /* \"#utility.yul\":934:937   */\n      0x00\n        /* \"#utility.yul\":955:1022   */\n      tag_152\n        /* \"#utility.yul\":1019:1021   */\n      0x10\n        /* \"#utility.yul\":1014:1017   */\n      dup4\n        /* \"#utility.yul\":955:1022   */\n      tag_153\n      jump\t// in\n    tag_152:\n        /* \"#utility.yul\":948:1022   */\n      swap2\n      pop\n        /* \"#utility.yul\":1031:1124   */\n      tag_154\n        /* \"#utility.yul\":1120:1123   */\n      dup3\n        /* \"#utility.yul\":1031:1124   */\n      tag_155\n      jump\t// in\n    tag_154:\n        /* \"#utility.yul\":1149:1151   */\n      0x20\n        /* \"#utility.yul\":1144:1147   */\n      dup3\n        /* \"#utility.yul\":1140:1152   */\n      add\n        /* \"#utility.yul\":1133:1152   */\n      swap1\n      pop\n        /* \"#utility.yul\":792:1158   */\n      swap2\n      swap1\n      pop\n      jump\t// out\n        /* \"#utility.yul\":1164:1282   */\n    tag_156:\n        /* \"#utility.yul\":1251:1275   */\n      tag_158\n        /* \"#utility.yul\":1269:1274   */\n      dup2\n        /* \"#utility.yul\":1251:1275   */\n      tag_159\n      jump\t// in\n    tag_158:\n        /* \"#utility.yul\":1246:1249   */\n      dup3\n        /* \"#utility.yul\":1239:1276   */\n      mstore\n        /* \"#utility.yul\":1164:1282   */\n      pop\n      pop\n      jump\t// out\n        /* \"#utility.yul\":1288:1542   */\n    tag_47:\n        /* \"#utility.yul\":1397:1401   */\n      0x00\n        /* \"#utility.yul\":1435:1437   */\n      0x20\n        /* \"#utility.yul\":1424:1433   */\n      dup3\n        /* \"#utility.yul\":1420:1438   */\n      add\n        /* \"#utility.yul\":1412:1438   */\n      swap1\n      pop\n        /* \"#utility.yul\":1448:1535   */\n      tag_161\n        /* \"#utility.yul\":1532:1533   */\n      0x00\n        /* \"#utility.yul\":1521:1530   */\n      dup4\n        /* \"#utility.yul\":1517:1534   */\n      add\n        /* \"#utility.yul\":1508:1514   */\n      dup5\n        /* \"#utility.yul\":1448:1535   */\n      tag_142\n      jump\t// in\n    tag_161:\n        /* \"#utility.yul\":1288:1542   */\n      swap3\n      swap2\n      pop\n      pop\n      jump\t// out\n        /* \"#utility.yul\":1548:1790   */\n    tag_42:\n        /* \"#utility.yul\":1651:1655   */\n      0x00\n        /* \"#utility.yul\":1689:1691   */\n      0x20\n        /* \"#utility.yul\":1678:1687   */\n      dup3\n        /* \"#utility.yul\":1674:1692   */\n      add\n        /* \"#utility.yul\":1666:1692   */\n      swap1\n      pop\n        /* \"#utility.yul\":1702:1783   */\n      tag_163\n        /* \"#utility.yul\":1780:1781   */\n      0x00\n        /* \"#utility.yul\":1769:1778   */\n      dup4\n        /* \"#utility.yul\":1765:1782   */\n      add\n        /* \"#utility.yul\":1756:1762   */\n      dup5\n        /* \"#utility.yul\":1702:1783   */\n      tag_146\n      jump\t// in\n    tag_163:\n        /* \"#utility.yul\":1548:1790   */\n      swap3\n      swap2\n      pop\n      pop\n      jump\t// out\n        /* \"#utility.yul\":1796:2215   */\n    tag_66:\n        /* \"#utility.yul\":1962:1966   */\n      0x00\n        /* \"#utility.yul\":2000:2002   */\n      0x20\n        /* \"#utility.yul\":1989:1998   */\n      dup3\n        /* \"#utility.yul\":1985:2003   */\n      add\n        /* \"#utility.yul\":1977:2003   */\n      swap1\n      pop\n        /* \"#utility.yul\":2049:2058   */\n      dup2\n        /* \"#utility.yul\":2043:2047   */\n      dup2\n        /* \"#utility.yul\":2039:2059   */\n      sub\n        /* \"#utility.yul\":2035:2036   */\n      0x00\n        /* \"#utility.yul\":2024:2033   */\n      dup4\n        /* \"#utility.yul\":2020:2037   */\n      add\n        /* \"#utility.yul\":2013:2060   */\n      mstore\n        /* \"#utility.yul\":2077:2208   */\n      tag_165\n        /* \"#utility.yul\":2203:2207   */\n      dup2\n        /* \"#utility.yul\":2077:2208   */\n      tag_150\n      jump\t// in\n    tag_165:\n        /* \"#utility.yul\":2069:2208   */\n      swap1\n      pop\n        /* \"#utility.yul\":1796:2215   */\n      swap2\n      swap1\n      pop\n      jump\t// out\n        /* \"#utility.yul\":2221:2443   */\n    tag_19:\n        /* \"#utility.yul\":2314:2318   */\n      0x00\n        /* \"#utility.yul\":2352:2354   */\n      0x20\n        /* \"#utility.yul\":2341:2350   */\n      dup3\n        /* \"#utility.yul\":2337:2355   */\n      add\n        /* \"#utility.yul\":2329:2355   */\n      swap1\n      pop\n        /* \"#utility.yul\":2365:2436   */\n      tag_167\n        /* \"#utility.yul\":2433:2434   */\n      0x00\n        /* \"#utility.yul\":2422:2431   */\n      dup4\n        /* \"#utility.yul\":2418:2435   */\n      add\n        /* \"#utility.yul\":2409:2415   */\n      dup5\n        /* \"#utility.yul\":2365:2436   */\n      tag_156\n      jump\t// in\n    tag_167:\n        /* \"#utility.yul\":2221:2443   */\n      swap3\n      swap2\n      pop\n      pop\n      jump\t// out\n        /* \"#utility.yul\":2530:2699   */\n    tag_153:\n        /* \"#utility.yul\":2614:2625   */\n      0x00\n        /* \"#utility.yul\":2648:2654   */\n      dup3\n        /* \"#utility.yul\":2643:2646   */\n      dup3\n        /* \"#utility.yul\":2636:2655   */\n      mstore\n        /* \"#utility.yul\":2688:2692   */\n      0x20\n        /* \"#utility.yul\":2683:2686   */\n      dup3\n        /* \"#utility.yul\":2679:2693   */\n      add\n        /* \"#utility.yul\":2664:2693   */\n      swap1\n      pop\n        /* \"#utility.yul\":2530:2699   */\n      swap3\n      swap2\n      pop\n      pop\n      jump\t// out\n        /* \"#utility.yul\":2705:3010   */\n    tag_80:\n        /* \"#utility.yul\":2745:2748   */\n      0x00\n        /* \"#utility.yul\":2764:2784   */\n      tag_172\n        /* \"#utility.yul\":2782:2783   */\n      dup3\n        /* \"#utility.yul\":2764:2784   */\n      tag_159\n      jump\t// in\n    tag_172:\n        /* \"#utility.yul\":2759:2784   */\n      swap2\n      pop\n        /* \"#utility.yul\":2798:2818   */\n      tag_173\n        /* \"#utility.yul\":2816:2817   */\n      dup4\n        /* \"#utility.yul\":2798:2818   */\n      tag_159\n      jump\t// in\n    tag_173:\n        /* \"#utility.yul\":2793:2818   */\n      swap3\n      pop\n        /* \"#utility.yul\":2952:2953   */\n      dup3\n        /* \"#utility.yul\":2884:2950   */\n      0xffffffffffffffffffffffffffffffffffffffffffffffffffffffffffffffff\n        /* \"#utility.yul\":2880:2954   */\n      sub\n        /* \"#utility.yul\":2877:2878   */\n      dup3\n        /* \"#utility.yul\":2874:2955   */\n      gt\n        /* \"#utility.yul\":2871:2978   */\n      iszero\n      tag_174\n      jumpi\n        /* \"#utility.yul\":2958:2976   */\n      tag_175\n      tag_176\n      jump\t// in\n    tag_175:\n        /* \"#utility.yul\":2871:2978   */\n    tag_174:\n        /* \"#utility.yul\":3002:3003   */\n      dup3\n        /* \"#utility.yul\":2999:3000   */\n      dup3\n        /* \"#utility.yul\":2995:3004   */\n      add\n        /* \"#utility.yul\":2988:3004   */\n      swap1\n      pop\n        /* \"#utility.yul\":2705:3010   */\n      swap3\n      swap2\n      pop\n      pop\n      jump\t// out\n        /* \"#utility.yul\":3016:3207   */\n    tag_125:\n        /* \"#utility.yul\":3056:3060   */\n      0x00\n        /* \"#utility.yul\":3076:3096   */\n      tag_178\n        /* \"#utility.yul\":3094:3095   */\n      dup3\n        /* \"#utility.yul\":3076:3096   */\n      tag_159\n      jump\t// in\n    tag_178:\n        /* \"#utility.yul\":3071:3096   */\n      swap2\n      pop\n        /* \"#utility.yul\":3110:3130   */\n      tag_179\n        /* \"#utility.yul\":3128:3129   */\n      dup4\n        /* \"#utility.yul\":3110:3130   */\n      tag_159\n      jump\t// in\n    tag_179:\n        /* \"#utility.yul\":3105:3130   */\n      swap3\n      pop\n        /* \"#utility.yul\":3149:3150   */\n      dup3\n        /* \"#utility.yul\":3146:3147   */\n      dup3\n        /* \"#utility.yul\":3143:3151   */\n      lt\n        /* \"#utility.yul\":3140:3174   */\n      iszero\n      tag_180\n      jumpi\n        /* \"#utility.yul\":3154:3172   */\n      tag_181\n      tag_176\n      jump\t// in\n    tag_181:\n        /* \"#utility.yul\":3140:3174   */\n    tag_180:\n        /* \"#utility.yul\":3199:3200   */\n      dup3\n        /* \"#utility.yul\":3196:3197   */\n      dup3\n        /* \"#utility.yul\":3192:3201   */\n      sub\n        /* \"#utility.yul\":3184:3201   */\n      swap1\n      pop\n        /* \"#utility.yul\":3016:3207   */\n      swap3\n      swap2\n      pop\n      pop\n      jump\t// out\n        /* \"#utility.yul\":3213:3309   */\n    tag_182:\n        /* \"#utility.yul\":3250:3257   */\n      0x00\n        /* \"#utility.yul\":3279:3303   */\n      tag_184\n        /* \"#utility.yul\":3297:3302   */\n      dup3\n        /* \"#utility.yul\":3279:3303   */\n      tag_185\n      jump\t// in\n    tag_184:\n        /* \"#utility.yul\":3268:3303   */\n      swap1\n      pop\n        /* \"#utility.yul\":3213:3309   */\n      swap2\n      swap1\n      pop\n      jump\t// out\n        /* \"#utility.yul\":3315:3419   */\n    tag_145:\n        /* \"#utility.yul\":3360:3367   */\n      0x00\n        /* \"#utility.yul\":3389:3413   */\n      tag_187\n        /* \"#utility.yul\":3407:3412   */\n      dup3\n        /* \"#utility.yul\":3389:3413   */\n      tag_185\n      jump\t// in\n    tag_187:\n        /* \"#utility.yul\":3378:3413   */\n      swap1\n      pop\n        /* \"#utility.yul\":3315:3419   */\n      swap2\n      swap1\n      pop\n      jump\t// out\n        /* \"#utility.yul\":3425:3560   */\n    tag_188:\n        /* \"#utility.yul\":3474:3481   */\n      0x00\n        /* \"#utility.yul\":3503:3508   */\n      dup2\n        /* \"#utility.yul\":3492:3508   */\n      swap1\n      pop\n        /* \"#utility.yul\":3509:3554   */\n      tag_190\n        /* \"#utility.yul\":3548:3553   */\n      dup3\n        /* \"#utility.yul\":3509:3554   */\n      tag_191\n      jump\t// in\n    tag_190:\n        /* \"#utility.yul\":3425:3560   */\n      swap2\n      swap1\n      pop\n      jump\t// out\n        /* \"#utility.yul\":3566:3692   */\n    tag_185:\n        /* \"#utility.yul\":3603:3610   */\n      0x00\n        /* \"#utility.yul\":3643:3685   */\n      0xffffffffffffffffffffffffffffffffffffffff\n        /* \"#utility.yul\":3636:3641   */\n      dup3\n        /* \"#utility.yul\":3632:3686   */\n      and\n        /* \"#utility.yul\":3621:3686   */\n      swap1\n      pop\n        /* \"#utility.yul\":3566:3692   */\n      swap2\n      swap1\n      pop\n      jump\t// out\n        /* \"#utility.yul\":3698:3775   */\n    tag_159:\n        /* \"#utility.yul\":3735:3742   */\n      0x00\n        /* \"#utility.yul\":3764:3769   */\n      dup2\n        /* \"#utility.yul\":3753:3769   */\n      swap1\n      pop\n        /* \"#utility.yul\":3698:3775   */\n      swap2\n      swap1\n      pop\n      jump\t// out\n        /* \"#utility.yul\":3781:3916   */\n    tag_149:\n        /* \"#utility.yul\":3841:3850   */\n      0x00\n        /* \"#utility.yul\":3874:3910   */\n      tag_195\n        /* \"#utility.yul\":3904:3909   */\n      dup3\n        /* \"#utility.yul\":3874:3910   */\n      tag_188\n      jump\t// in\n    tag_195:\n        /* \"#utility.yul\":3861:3910   */\n      swap1\n      pop\n        /* \"#utility.yul\":3781:3916   */\n      swap2\n      swap1\n      pop\n      jump\t// out\n        /* \"#utility.yul\":3922:4102   */\n    tag_176:\n        /* \"#utility.yul\":3970:4047   */\n      0x4e487b7100000000000000000000000000000000000000000000000000000000\n        /* \"#utility.yul\":3967:3968   */\n      0x00\n        /* \"#utility.yul\":3960:4048   */\n      mstore\n        /* \"#utility.yul\":4067:4071   */\n      0x11\n        /* \"#utility.yul\":4064:4065   */\n      0x04\n        /* \"#utility.yul\":4057:4072   */\n      mstore\n        /* \"#utility.yul\":4091:4095   */\n      0x24\n        /* \"#utility.yul\":4088:4089   */\n      0x00\n        /* \"#utility.yul\":4081:4096   */\n      revert\n        /* \"#utility.yul\":4108:4288   */\n    tag_74:\n        /* \"#utility.yul\":4156:4233   */\n      0x4e487b7100000000000000000000000000000000000000000000000000000000\n        /* \"#utility.yul\":4153:4154   */\n      0x00\n        /* \"#utility.yul\":4146:4234   */\n      mstore\n        /* \"#utility.yul\":4253:4257   */\n      0x21\n        /* \"#utility.yul\":4250:4251   */\n      0x04\n        /* \"#utility.yul\":4243:4258   */\n      mstore\n        /* \"#utility.yul\":4277:4281   */\n      0x24\n        /* \"#utility.yul\":4274:4275   */\n      0x00\n        /* \"#utility.yul\":4267:4282   */\n      revert\n        /* \"#utility.yul\":4417:4534   */\n    tag_140:\n        /* \"#utility.yul\":4526:4527   */\n      0x00\n        /* \"#utility.yul\":4523:4524   */\n      dup1\n        /* \"#utility.yul\":4516:4528   */\n      revert\n        /* \"#utility.yul\":4540:4706   */\n    tag_155:\n        /* \"#utility.yul\":4680:4698   */\n      0x4f776e65722063616e6e6f742062696400000000000000000000000000000000\n        /* \"#utility.yul\":4676:4677   */\n      0x00\n        /* \"#utility.yul\":4668:4674   */\n      dup3\n        /* \"#utility.yul\":4664:4678   */\n      add\n        /* \"#utility.yul\":4657:4699   */\n      mstore\n        /* \"#utility.yul\":4540:4706   */\n      pop\n      jump\t// out\n        /* \"#utility.yul\":4712:4829   */\n    tag_191:\n        /* \"#utility.yul\":4797:4798   */\n      0x04\n        /* \"#utility.yul\":4790:4795   */\n      dup2\n        /* \"#utility.yul\":4787:4799   */\n      lt\n        /* \"#utility.yul\":4777:4823   */\n      tag_203\n      jumpi\n        /* \"#utility.yul\":4803:4821   */\n      tag_204\n      tag_74\n      jump\t// in\n    tag_204:\n        /* \"#utility.yul\":4777:4823   */\n    tag_203:\n        /* \"#utility.yul\":4712:4829   */\n      pop\n      jump\t// out\n        /* \"#utility.yul\":4835:4957   */\n    tag_136:\n        /* \"#utility.yul\":4908:4932   */\n      tag_206\n        /* \"#utility.yul\":4926:4931   */\n      dup2\n        /* \"#utility.yul\":4908:4932   */\n      tag_182\n      jump\t// in\n    tag_206:\n        /* \"#utility.yul\":4901:4906   */\n      dup2\n        /* \"#utility.yul\":4898:4933   */\n      eq\n        /* \"#utility.yul\":4888:4951   */\n      tag_207\n      jumpi\n        /* \"#utility.yul\":4947:4948   */\n      0x00\n        /* \"#utility.yul\":4944:4945   */\n      dup1\n        /* \"#utility.yul\":4937:4949   */\n      revert\n        /* \"#utility.yul\":4888:4951   */\n    tag_207:\n        /* \"#utility.yul\":4835:4957   */\n      pop\n      jump\t// out\n\n    auxdata: 0xa2646970667358221220378e0ceca4b0b0816cae0d71841f7aeeb3faef0ede2129600ef35612e73d7d4664736f6c63430008070033\n}\n",
				"bytecode": {
					"linkReferences": {},
					"object": "608060405234801561001057600080fd5b50336000806101000a81548173ffffffffffffffffffffffffffffffffffffffff021916908373ffffffffffffffffffffffffffffffffffffffff1602179055506001600360006101000a81548160ff021916908360038111156100775761007661013b565b5b02179055504360018190555060f060015461009291906100ac565b600281905550670de0b6b3a764000060068190555061016a565b60006100b782610102565b91506100c283610102565b9250827fffffffffffffffffffffffffffffffffffffffffffffffffffffffffffffffff038211156100f7576100f661010c565b5b828201905092915050565b6000819050919050565b7f4e487b7100000000000000000000000000000000000000000000000000000000600052601160045260246000fd5b7f4e487b7100000000000000000000000000000000000000000000000000000000600052602160045260246000fd5b610eaf806101796000396000f3fe6080604052600436106100a75760003560e01c80637fb45099116100645780637fb450991461017757806391f90157146101a25780639d957d45146101cd578063a118be02146101f8578063d57bde7914610223578063e94f55eb1461024e576100a7565b806315b24677146100ac5780631998aeef146100d75780632352f320146100e15780633fdceefd146100f85780634f5150ca1461010f57806362ea82db1461013a575b600080fd5b3480156100b857600080fd5b506100c1610265565b6040516100ce9190610c99565b60405180910390f35b6100df61026b565b005b3480156100ed57600080fd5b506100f66105bb565b005b34801561010457600080fd5b5061010d610675565b005b34801561011b57600080fd5b50610124610730565b6040516101319190610c99565b60405180910390f35b34801561014657600080fd5b50610161600480360381019061015c9190610bc6565b610736565b60405161016e9190610c99565b60405180910390f35b34801561018357600080fd5b5061018c61074e565b6040516101999190610c5e565b60405180910390f35b3480156101ae57600080fd5b506101b7610761565b6040516101c49190610c43565b60405180910390f35b3480156101d957600080fd5b506101e2610787565b6040516101ef9190610c99565b60405180910390f35b34801561020457600080fd5b5061020d61078d565b60405161021a9190610c99565b60405180910390f35b34801561022f57600080fd5b50610238610793565b6040516102459190610c99565b60405180910390f35b34801561025a57600080fd5b50610263610799565b005b60065481565b60008054906101000a900473ffffffffffffffffffffffffffffffffffffffff1673ffffffffffffffffffffffffffffffffffffffff163373ffffffffffffffffffffffffffffffffffffffff1614156102fa576040517f08c379a00000000000000000000000000000000000000000000000000000000081526004016102f190610c79565b60405180910390fd5b600154431161030857600080fd5b600254431061031657600080fd5b6001600381111561032a57610329610df1565b5b600360009054906101000a900460ff16600381111561034c5761034b610df1565b5b1461035657600080fd5b670de0b6b3a764000034101561036b57600080fd5b600034600860003373ffffffffffffffffffffffffffffffffffffffff1673ffffffffffffffffffffffffffffffffffffffff168152602001908152602001600020546103b89190610cc5565b905060055481116103c857600080fd5b80600860003373ffffffffffffffffffffffffffffffffffffffff1673ffffffffffffffffffffffffffffffffffffffff1681526020019081526020016000208190555060086000600760009054906101000a900473ffffffffffffffffffffffffffffffffffffffff1673ffffffffffffffffffffffffffffffffffffffff1673ffffffffffffffffffffffffffffffffffffffff168152602001908152602001600020548110156104f8576104ed600654826104869190610cc5565b60086000600760009054906101000a900473ffffffffffffffffffffffffffffffffffffffff1673ffffffffffffffffffffffffffffffffffffffff1673ffffffffffffffffffffffffffffffffffffffff16815260200190815260200160002054610b96565b6005819055506105b8565b6105708160065460086000600760009054906101000a900473ffffffffffffffffffffffffffffffffffffffff1673ffffffffffffffffffffffffffffffffffffffff1673ffffffffffffffffffffffffffffffffffffffff1681526020019081526020016000205461056b9190610cc5565b610b96565b60058190555033600760006101000a81548173ffffffffffffffffffffffffffffffffffffffff021916908373ffffffffffffffffffffffffffffffffffffffff1602179055505b50565b60008054906101000a900473ffffffffffffffffffffffffffffffffffffffff1673ffffffffffffffffffffffffffffffffffffffff163373ffffffffffffffffffffffffffffffffffffffff1614610649576040517f08c379a000000000000000000000000000000000000000000000000000000000815260040161064090610c79565b60405180910390fd5b60038060006101000a81548160ff0219169083600381111561066e5761066d610df1565b5b0217905550565b60008054906101000a900473ffffffffffffffffffffffffffffffffffffffff1673ffffffffffffffffffffffffffffffffffffffff163373ffffffffffffffffffffffffffffffffffffffff1614610703576040517f08c379a00000000000000000000000000000000000000000000000000000000081526004016106fa90610c79565b60405180910390fd5b6002600360006101000a81548160ff0219169083600381111561072957610728610df1565b5b0217905550565b60055481565b60086020528060005260406000206000915090505481565b600360009054906101000a900460ff1681565b600760009054906101000a900473ffffffffffffffffffffffffffffffffffffffff1681565b60025481565b60015481565b60045481565b6003808111156107ac576107ab610df1565b5b600360009054906101000a900460ff1660038111156107ce576107cd610df1565b5b148061080d5750600260038111156107e9576107e8610df1565b5b600360009054906101000a900460ff16600381111561080b5761080a610df1565b5b145b80610819575060025443115b61082257600080fd5b60008054906101000a900473ffffffffffffffffffffffffffffffffffffffff1673ffffffffffffffffffffffffffffffffffffffff163373ffffffffffffffffffffffffffffffffffffffff1614806108bb57506000600860003373ffffffffffffffffffffffffffffffffffffffff1673ffffffffffffffffffffffffffffffffffffffff16815260200190815260200160002054115b6108c457600080fd5b6000806003808111156108da576108d9610df1565b5b600360009054906101000a900460ff1660038111156108fc576108fb610df1565b5b141561094c57339150600860003373ffffffffffffffffffffffffffffffffffffffff1673ffffffffffffffffffffffffffffffffffffffff168152602001908152602001600020549050610b06565b60008054906101000a900473ffffffffffffffffffffffffffffffffffffffff1673ffffffffffffffffffffffffffffffffffffffff163373ffffffffffffffffffffffffffffffffffffffff1614156109cd5760008054906101000a900473ffffffffffffffffffffffffffffffffffffffff1691506005549050610b05565b600760009054906101000a900473ffffffffffffffffffffffffffffffffffffffff1673ffffffffffffffffffffffffffffffffffffffff163373ffffffffffffffffffffffffffffffffffffffff161415610abe57600760009054906101000a900473ffffffffffffffffffffffffffffffffffffffff16915060055460086000600760009054906101000a900473ffffffffffffffffffffffffffffffffffffffff1673ffffffffffffffffffffffffffffffffffffffff1673ffffffffffffffffffffffffffffffffffffffff16815260200190815260200160002054610ab79190610d1b565b9050610b04565b339150600860003373ffffffffffffffffffffffffffffffffffffffff1673ffffffffffffffffffffffffffffffffffffffff1681526020019081526020016000205490505b5b5b6000600860003373ffffffffffffffffffffffffffffffffffffffff1673ffffffffffffffffffffffffffffffffffffffff168152602001908152602001600020819055508173ffffffffffffffffffffffffffffffffffffffff166108fc829081150290604051600060405180830381858888f19350505050158015610b91573d6000803e3d6000fd5b505050565b6000818311610ba757829050610bab565b8190505b92915050565b600081359050610bc081610e62565b92915050565b600060208284031215610bdc57610bdb610e20565b5b6000610bea84828501610bb1565b91505092915050565b610bfc81610d61565b82525050565b610c0b81610db0565b82525050565b6000610c1e601083610cb4565b9150610c2982610e25565b602082019050919050565b610c3d81610da6565b82525050565b6000602082019050610c586000830184610bf3565b92915050565b6000602082019050610c736000830184610c02565b92915050565b60006020820190508181036000830152610c9281610c11565b9050919050565b6000602082019050610cae6000830184610c34565b92915050565b600082825260208201905092915050565b6000610cd082610da6565b9150610cdb83610da6565b9250827fffffffffffffffffffffffffffffffffffffffffffffffffffffffffffffffff03821115610d1057610d0f610dc2565b5b828201905092915050565b6000610d2682610da6565b9150610d3183610da6565b925082821015610d4457610d43610dc2565b5b828203905092915050565b6000610d5a82610d86565b9050919050565b6000610d6c82610d86565b9050919050565b6000819050610d8182610e4e565b919050565b600073ffffffffffffffffffffffffffffffffffffffff82169050919050565b6000819050919050565b6000610dbb82610d73565b9050919050565b7f4e487b7100000000000000000000000000000000000000000000000000000000600052601160045260246000fd5b7f4e487b7100000000000000000000000000000000000000000000000000000000600052602160045260246000fd5b600080fd5b7f4f776e65722063616e6e6f742062696400000000000000000000000000000000600082015250565b60048110610e5f57610e5e610df1565b5b50565b610e6b81610d4f565b8114610e7657600080fd5b5056fea2646970667358221220378e0ceca4b0b0816cae0d71841f7aeeb3faef0ede2129600ef35612e73d7d4664736f6c63430008070033",
					"opcodes": "PUSH1 0x80 PUSH1 0x40 MSTORE CALLVALUE DUP1 ISZERO PUSH2 0x10 JUMPI PUSH1 0x0 DUP1 REVERT JUMPDEST POP CALLER PUSH1 0x0 DUP1 PUSH2 0x100 EXP DUP2 SLOAD DUP2 PUSH20 0xFFFFFFFFFFFFFFFFFFFFFFFFFFFFFFFFFFFFFFFF MUL NOT AND SWAP1 DUP4 PUSH20 0xFFFFFFFFFFFFFFFFFFFFFFFFFFFFFFFFFFFFFFFF AND MUL OR SWAP1 SSTORE POP PUSH1 0x1 PUSH1 0x3 PUSH1 0x0 PUSH2 0x100 EXP DUP2 SLOAD DUP2 PUSH1 0xFF MUL NOT AND SWAP1 DUP4 PUSH1 0x3 DUP2 GT ISZERO PUSH2 0x77 JUMPI PUSH2 0x76 PUSH2 0x13B JUMP JUMPDEST JUMPDEST MUL OR SWAP1 SSTORE POP NUMBER PUSH1 0x1 DUP2 SWAP1 SSTORE POP PUSH1 0xF0 PUSH1 0x1 SLOAD PUSH2 0x92 SWAP2 SWAP1 PUSH2 0xAC JUMP JUMPDEST PUSH1 0x2 DUP2 SWAP1 SSTORE POP PUSH8 0xDE0B6B3A7640000 PUSH1 0x6 DUP2 SWAP1 SSTORE POP PUSH2 0x16A JUMP JUMPDEST PUSH1 0x0 PUSH2 0xB7 DUP3 PUSH2 0x102 JUMP JUMPDEST SWAP2 POP PUSH2 0xC2 DUP4 PUSH2 0x102 JUMP JUMPDEST SWAP3 POP DUP3 PUSH32 0xFFFFFFFFFFFFFFFFFFFFFFFFFFFFFFFFFFFFFFFFFFFFFFFFFFFFFFFFFFFFFFFF SUB DUP3 GT ISZERO PUSH2 0xF7 JUMPI PUSH2 0xF6 PUSH2 0x10C JUMP JUMPDEST JUMPDEST DUP3 DUP3 ADD SWAP1 POP SWAP3 SWAP2 POP POP JUMP JUMPDEST PUSH1 0x0 DUP2 SWAP1 POP SWAP2 SWAP1 POP JUMP JUMPDEST PUSH32 0x4E487B7100000000000000000000000000000000000000000000000000000000 PUSH1 0x0 MSTORE PUSH1 0x11 PUSH1 0x4 MSTORE PUSH1 0x24 PUSH1 0x0 REVERT JUMPDEST PUSH32 0x4E487B7100000000000000000000000000000000000000000000000000000000 PUSH1 0x0 MSTORE PUSH1 0x21 PUSH1 0x4 MSTORE PUSH1 0x24 PUSH1 0x0 REVERT JUMPDEST PUSH2 0xEAF DUP1 PUSH2 0x179 PUSH1 0x0 CODECOPY PUSH1 0x0 RETURN INVALID PUSH1 0x80 PUSH1 0x40 MSTORE PUSH1 0x4 CALLDATASIZE LT PUSH2 0xA7 JUMPI PUSH1 0x0 CALLDATALOAD PUSH1 0xE0 SHR DUP1 PUSH4 0x7FB45099 GT PUSH2 0x64 JUMPI DUP1 PUSH4 0x7FB45099 EQ PUSH2 0x177 JUMPI DUP1 PUSH4 0x91F90157 EQ PUSH2 0x1A2 JUMPI DUP1 PUSH4 0x9D957D45 EQ PUSH2 0x1CD JUMPI DUP1 PUSH4 0xA118BE02 EQ PUSH2 0x1F8 JUMPI DUP1 PUSH4 0xD57BDE79 EQ PUSH2 0x223 JUMPI DUP1 PUSH4 0xE94F55EB EQ PUSH2 0x24E JUMPI PUSH2 0xA7 JUMP JUMPDEST DUP1 PUSH4 0x15B24677 EQ PUSH2 0xAC JUMPI DUP1 PUSH4 0x1998AEEF EQ PUSH2 0xD7 JUMPI DUP1 PUSH4 0x2352F320 EQ PUSH2 0xE1 JUMPI DUP1 PUSH4 0x3FDCEEFD EQ PUSH2 0xF8 JUMPI DUP1 PUSH4 0x4F5150CA EQ PUSH2 0x10F JUMPI DUP1 PUSH4 0x62EA82DB EQ PUSH2 0x13A JUMPI JUMPDEST PUSH1 0x0 DUP1 REVERT JUMPDEST CALLVALUE DUP1 ISZERO PUSH2 0xB8 JUMPI PUSH1 0x0 DUP1 REVERT JUMPDEST POP PUSH2 0xC1 PUSH2 0x265 JUMP JUMPDEST PUSH1 0x40 MLOAD PUSH2 0xCE SWAP2 SWAP1 PUSH2 0xC99 JUMP JUMPDEST PUSH1 0x40 MLOAD DUP1 SWAP2 SUB SWAP1 RETURN JUMPDEST PUSH2 0xDF PUSH2 0x26B JUMP JUMPDEST STOP JUMPDEST CALLVALUE DUP1 ISZERO PUSH2 0xED JUMPI PUSH1 0x0 DUP1 REVERT JUMPDEST POP PUSH2 0xF6 PUSH2 0x5BB JUMP JUMPDEST STOP JUMPDEST CALLVALUE DUP1 ISZERO PUSH2 0x104 JUMPI PUSH1 0x0 DUP1 REVERT JUMPDEST POP PUSH2 0x10D PUSH2 0x675 JUMP JUMPDEST STOP JUMPDEST CALLVALUE DUP1 ISZERO PUSH2 0x11B JUMPI PUSH1 0x0 DUP1 REVERT JUMPDEST POP PUSH2 0x124 PUSH2 0x730 JUMP JUMPDEST PUSH1 0x40 MLOAD PUSH2 0x131 SWAP2 SWAP1 PUSH2 0xC99 JUMP JUMPDEST PUSH1 0x40 MLOAD DUP1 SWAP2 SUB SWAP1 RETURN JUMPDEST CALLVALUE DUP1 ISZERO PUSH2 0x146 JUMPI PUSH1 0x0 DUP1 REVERT JUMPDEST POP PUSH2 0x161 PUSH1 0x4 DUP1 CALLDATASIZE SUB DUP2 ADD SWAP1 PUSH2 0x15C SWAP2 SWAP1 PUSH2 0xBC6 JUMP JUMPDEST PUSH2 0x736 JUMP JUMPDEST PUSH1 0x40 MLOAD PUSH2 0x16E SWAP2 SWAP1 PUSH2 0xC99 JUMP JUMPDEST PUSH1 0x40 MLOAD DUP1 SWAP2 SUB SWAP1 RETURN JUMPDEST CALLVALUE DUP1 ISZERO PUSH2 0x183 JUMPI PUSH1 0x0 DUP1 REVERT JUMPDEST POP PUSH2 0x18C PUSH2 0x74E JUMP JUMPDEST PUSH1 0x40 MLOAD PUSH2 0x199 SWAP2 SWAP1 PUSH2 0xC5E JUMP JUMPDEST PUSH1 0x40 MLOAD DUP1 SWAP2 SUB SWAP1 RETURN JUMPDEST CALLVALUE DUP1 ISZERO PUSH2 0x1AE JUMPI PUSH1 0x0 DUP1 REVERT JUMPDEST POP PUSH2 0x1B7 PUSH2 0x761 JUMP JUMPDEST PUSH1 0x40 MLOAD PUSH2 0x1C4 SWAP2 SWAP1 PUSH2 0xC43 JUMP JUMPDEST PUSH1 0x40 MLOAD DUP1 SWAP2 SUB SWAP1 RETURN JUMPDEST CALLVALUE DUP1 ISZERO PUSH2 0x1D9 JUMPI PUSH1 0x0 DUP1 REVERT JUMPDEST POP PUSH2 0x1E2 PUSH2 0x787 JUMP JUMPDEST PUSH1 0x40 MLOAD PUSH2 0x1EF SWAP2 SWAP1 PUSH2 0xC99 JUMP JUMPDEST PUSH1 0x40 MLOAD DUP1 SWAP2 SUB SWAP1 RETURN JUMPDEST CALLVALUE DUP1 ISZERO PUSH2 0x204 JUMPI PUSH1 0x0 DUP1 REVERT JUMPDEST POP PUSH2 0x20D PUSH2 0x78D JUMP JUMPDEST PUSH1 0x40 MLOAD PUSH2 0x21A SWAP2 SWAP1 PUSH2 0xC99 JUMP JUMPDEST PUSH1 0x40 MLOAD DUP1 SWAP2 SUB SWAP1 RETURN JUMPDEST CALLVALUE DUP1 ISZERO PUSH2 0x22F JUMPI PUSH1 0x0 DUP1 REVERT JUMPDEST POP PUSH2 0x238 PUSH2 0x793 JUMP JUMPDEST PUSH1 0x40 MLOAD PUSH2 0x245 SWAP2 SWAP1 PUSH2 0xC99 JUMP JUMPDEST PUSH1 0x40 MLOAD DUP1 SWAP2 SUB SWAP1 RETURN JUMPDEST CALLVALUE DUP1 ISZERO PUSH2 0x25A JUMPI PUSH1 0x0 DUP1 REVERT JUMPDEST POP PUSH2 0x263 PUSH2 0x799 JUMP JUMPDEST STOP JUMPDEST PUSH1 0x6 SLOAD DUP2 JUMP JUMPDEST PUSH1 0x0 DUP1 SLOAD SWAP1 PUSH2 0x100 EXP SWAP1 DIV PUSH20 0xFFFFFFFFFFFFFFFFFFFFFFFFFFFFFFFFFFFFFFFF AND PUSH20 0xFFFFFFFFFFFFFFFFFFFFFFFFFFFFFFFFFFFFFFFF AND CALLER PUSH20 0xFFFFFFFFFFFFFFFFFFFFFFFFFFFFFFFFFFFFFFFF AND EQ ISZERO PUSH2 0x2FA JUMPI PUSH1 0x40 MLOAD PUSH32 0x8C379A000000000000000000000000000000000000000000000000000000000 DUP2 MSTORE PUSH1 0x4 ADD PUSH2 0x2F1 SWAP1 PUSH2 0xC79 JUMP JUMPDEST PUSH1 0x40 MLOAD DUP1 SWAP2 SUB SWAP1 REVERT JUMPDEST PUSH1 0x1 SLOAD NUMBER GT PUSH2 0x308 JUMPI PUSH1 0x0 DUP1 REVERT JUMPDEST PUSH1 0x2 SLOAD NUMBER LT PUSH2 0x316 JUMPI PUSH1 0x0 DUP1 REVERT JUMPDEST PUSH1 0x1 PUSH1 0x3 DUP2 GT ISZERO PUSH2 0x32A JUMPI PUSH2 0x329 PUSH2 0xDF1 JUMP JUMPDEST JUMPDEST PUSH1 0x3 PUSH1 0x0 SWAP1 SLOAD SWAP1 PUSH2 0x100 EXP SWAP1 DIV PUSH1 0xFF AND PUSH1 0x3 DUP2 GT ISZERO PUSH2 0x34C JUMPI PUSH2 0x34B PUSH2 0xDF1 JUMP JUMPDEST JUMPDEST EQ PUSH2 0x356 JUMPI PUSH1 0x0 DUP1 REVERT JUMPDEST PUSH8 0xDE0B6B3A7640000 CALLVALUE LT ISZERO PUSH2 0x36B JUMPI PUSH1 0x0 DUP1 REVERT JUMPDEST PUSH1 0x0 CALLVALUE PUSH1 0x8 PUSH1 0x0 CALLER PUSH20 0xFFFFFFFFFFFFFFFFFFFFFFFFFFFFFFFFFFFFFFFF AND PUSH20 0xFFFFFFFFFFFFFFFFFFFFFFFFFFFFFFFFFFFFFFFF AND DUP2 MSTORE PUSH1 0x20 ADD SWAP1 DUP2 MSTORE PUSH1 0x20 ADD PUSH1 0x0 KECCAK256 SLOAD PUSH2 0x3B8 SWAP2 SWAP1 PUSH2 0xCC5 JUMP JUMPDEST SWAP1 POP PUSH1 0x5 SLOAD DUP2 GT PUSH2 0x3C8 JUMPI PUSH1 0x0 DUP1 REVERT JUMPDEST DUP1 PUSH1 0x8 PUSH1 0x0 CALLER PUSH20 0xFFFFFFFFFFFFFFFFFFFFFFFFFFFFFFFFFFFFFFFF AND PUSH20 0xFFFFFFFFFFFFFFFFFFFFFFFFFFFFFFFFFFFFFFFF AND DUP2 MSTORE PUSH1 0x20 ADD SWAP1 DUP2 MSTORE PUSH1 0x20 ADD PUSH1 0x0 KECCAK256 DUP2 SWAP1 SSTORE POP PUSH1 0x8 PUSH1 0x0 PUSH1 0x7 PUSH1 0x0 SWAP1 SLOAD SWAP1 PUSH2 0x100 EXP SWAP1 DIV PUSH20 0xFFFFFFFFFFFFFFFFFFFFFFFFFFFFFFFFFFFFFFFF AND PUSH20 0xFFFFFFFFFFFFFFFFFFFFFFFFFFFFFFFFFFFFFFFF AND PUSH20 0xFFFFFFFFFFFFFFFFFFFFFFFFFFFFFFFFFFFFFFFF AND DUP2 MSTORE PUSH1 0x20 ADD SWAP1 DUP2 MSTORE PUSH1 0x20 ADD PUSH1 0x0 KECCAK256 SLOAD DUP2 LT ISZERO PUSH2 0x4F8 JUMPI PUSH2 0x4ED PUSH1 0x6 SLOAD DUP3 PUSH2 0x486 SWAP2 SWAP1 PUSH2 0xCC5 JUMP JUMPDEST PUSH1 0x8 PUSH1 0x0 PUSH1 0x7 PUSH1 0x0 SWAP1 SLOAD SWAP1 PUSH2 0x100 EXP SWAP1 DIV PUSH20 0xFFFFFFFFFFFFFFFFFFFFFFFFFFFFFFFFFFFFFFFF AND PUSH20 0xFFFFFFFFFFFFFFFFFFFFFFFFFFFFFFFFFFFFFFFF AND PUSH20 0xFFFFFFFFFFFFFFFFFFFFFFFFFFFFFFFFFFFFFFFF AND DUP2 MSTORE PUSH1 0x20 ADD SWAP1 DUP2 MSTORE PUSH1 0x20 ADD PUSH1 0x0 KECCAK256 SLOAD PUSH2 0xB96 JUMP JUMPDEST PUSH1 0x5 DUP2 SWAP1 SSTORE POP PUSH2 0x5B8 JUMP JUMPDEST PUSH2 0x570 DUP2 PUSH1 0x6 SLOAD PUSH1 0x8 PUSH1 0x0 PUSH1 0x7 PUSH1 0x0 SWAP1 SLOAD SWAP1 PUSH2 0x100 EXP SWAP1 DIV PUSH20 0xFFFFFFFFFFFFFFFFFFFFFFFFFFFFFFFFFFFFFFFF AND PUSH20 0xFFFFFFFFFFFFFFFFFFFFFFFFFFFFFFFFFFFFFFFF AND PUSH20 0xFFFFFFFFFFFFFFFFFFFFFFFFFFFFFFFFFFFFFFFF AND DUP2 MSTORE PUSH1 0x20 ADD SWAP1 DUP2 MSTORE PUSH1 0x20 ADD PUSH1 0x0 KECCAK256 SLOAD PUSH2 0x56B SWAP2 SWAP1 PUSH2 0xCC5 JUMP JUMPDEST PUSH2 0xB96 JUMP JUMPDEST PUSH1 0x5 DUP2 SWAP1 SSTORE POP CALLER PUSH1 0x7 PUSH1 0x0 PUSH2 0x100 EXP DUP2 SLOAD DUP2 PUSH20 0xFFFFFFFFFFFFFFFFFFFFFFFFFFFFFFFFFFFFFFFF MUL NOT AND SWAP1 DUP4 PUSH20 0xFFFFFFFFFFFFFFFFFFFFFFFFFFFFFFFFFFFFFFFF AND MUL OR SWAP1 SSTORE POP JUMPDEST POP JUMP JUMPDEST PUSH1 0x0 DUP1 SLOAD SWAP1 PUSH2 0x100 EXP SWAP1 DIV PUSH20 0xFFFFFFFFFFFFFFFFFFFFFFFFFFFFFFFFFFFFFFFF AND PUSH20 0xFFFFFFFFFFFFFFFFFFFFFFFFFFFFFFFFFFFFFFFF AND CALLER PUSH20 0xFFFFFFFFFFFFFFFFFFFFFFFFFFFFFFFFFFFFFFFF AND EQ PUSH2 0x649 JUMPI PUSH1 0x40 MLOAD PUSH32 0x8C379A000000000000000000000000000000000000000000000000000000000 DUP2 MSTORE PUSH1 0x4 ADD PUSH2 0x640 SWAP1 PUSH2 0xC79 JUMP JUMPDEST PUSH1 0x40 MLOAD DUP1 SWAP2 SUB SWAP1 REVERT JUMPDEST PUSH1 0x3 DUP1 PUSH1 0x0 PUSH2 0x100 EXP DUP2 SLOAD DUP2 PUSH1 0xFF MUL NOT AND SWAP1 DUP4 PUSH1 0x3 DUP2 GT ISZERO PUSH2 0x66E JUMPI PUSH2 0x66D PUSH2 0xDF1 JUMP JUMPDEST JUMPDEST MUL OR SWAP1 SSTORE POP JUMP JUMPDEST PUSH1 0x0 DUP1 SLOAD SWAP1 PUSH2 0x100 EXP SWAP1 DIV PUSH20 0xFFFFFFFFFFFFFFFFFFFFFFFFFFFFFFFFFFFFFFFF AND PUSH20 0xFFFFFFFFFFFFFFFFFFFFFFFFFFFFFFFFFFFFFFFF AND CALLER PUSH20 0xFFFFFFFFFFFFFFFFFFFFFFFFFFFFFFFFFFFFFFFF AND EQ PUSH2 0x703 JUMPI PUSH1 0x40 MLOAD PUSH32 0x8C379A000000000000000000000000000000000000000000000000000000000 DUP2 MSTORE PUSH1 0x4 ADD PUSH2 0x6FA SWAP1 PUSH2 0xC79 JUMP JUMPDEST PUSH1 0x40 MLOAD DUP1 SWAP2 SUB SWAP1 REVERT JUMPDEST PUSH1 0x2 PUSH1 0x3 PUSH1 0x0 PUSH2 0x100 EXP DUP2 SLOAD DUP2 PUSH1 0xFF MUL NOT AND SWAP1 DUP4 PUSH1 0x3 DUP2 GT ISZERO PUSH2 0x729 JUMPI PUSH2 0x728 PUSH2 0xDF1 JUMP JUMPDEST JUMPDEST MUL OR SWAP1 SSTORE POP JUMP JUMPDEST PUSH1 0x5 SLOAD DUP2 JUMP JUMPDEST PUSH1 0x8 PUSH1 0x20 MSTORE DUP1 PUSH1 0x0 MSTORE PUSH1 0x40 PUSH1 0x0 KECCAK256 PUSH1 0x0 SWAP2 POP SWAP1 POP SLOAD DUP2 JUMP JUMPDEST PUSH1 0x3 PUSH1 0x0 SWAP1 SLOAD SWAP1 PUSH2 0x100 EXP SWAP1 DIV PUSH1 0xFF AND DUP2 JUMP JUMPDEST PUSH1 0x7 PUSH1 0x0 SWAP1 SLOAD SWAP1 PUSH2 0x100 EXP SWAP1 DIV PUSH20 0xFFFFFFFFFFFFFFFFFFFFFFFFFFFFFFFFFFFFFFFF AND DUP2 JUMP JUMPDEST PUSH1 0x2 SLOAD DUP2 JUMP JUMPDEST PUSH1 0x1 SLOAD DUP2 JUMP JUMPDEST PUSH1 0x4 SLOAD DUP2 JUMP JUMPDEST PUSH1 0x3 DUP1 DUP2 GT ISZERO PUSH2 0x7AC JUMPI PUSH2 0x7AB PUSH2 0xDF1 JUMP JUMPDEST JUMPDEST PUSH1 0x3 PUSH1 0x0 SWAP1 SLOAD SWAP1 PUSH2 0x100 EXP SWAP1 DIV PUSH1 0xFF AND PUSH1 0x3 DUP2 GT ISZERO PUSH2 0x7CE JUMPI PUSH2 0x7CD PUSH2 0xDF1 JUMP JUMPDEST JUMPDEST EQ DUP1 PUSH2 0x80D JUMPI POP PUSH1 0x2 PUSH1 0x3 DUP2 GT ISZERO PUSH2 0x7E9 JUMPI PUSH2 0x7E8 PUSH2 0xDF1 JUMP JUMPDEST JUMPDEST PUSH1 0x3 PUSH1 0x0 SWAP1 SLOAD SWAP1 PUSH2 0x100 EXP SWAP1 DIV PUSH1 0xFF AND PUSH1 0x3 DUP2 GT ISZERO PUSH2 0x80B JUMPI PUSH2 0x80A PUSH2 0xDF1 JUMP JUMPDEST JUMPDEST EQ JUMPDEST DUP1 PUSH2 0x819 JUMPI POP PUSH1 0x2 SLOAD NUMBER GT JUMPDEST PUSH2 0x822 JUMPI PUSH1 0x0 DUP1 REVERT JUMPDEST PUSH1 0x0 DUP1 SLOAD SWAP1 PUSH2 0x100 EXP SWAP1 DIV PUSH20 0xFFFFFFFFFFFFFFFFFFFFFFFFFFFFFFFFFFFFFFFF AND PUSH20 0xFFFFFFFFFFFFFFFFFFFFFFFFFFFFFFFFFFFFFFFF AND CALLER PUSH20 0xFFFFFFFFFFFFFFFFFFFFFFFFFFFFFFFFFFFFFFFF AND EQ DUP1 PUSH2 0x8BB JUMPI POP PUSH1 0x0 PUSH1 0x8 PUSH1 0x0 CALLER PUSH20 0xFFFFFFFFFFFFFFFFFFFFFFFFFFFFFFFFFFFFFFFF AND PUSH20 0xFFFFFFFFFFFFFFFFFFFFFFFFFFFFFFFFFFFFFFFF AND DUP2 MSTORE PUSH1 0x20 ADD SWAP1 DUP2 MSTORE PUSH1 0x20 ADD PUSH1 0x0 KECCAK256 SLOAD GT JUMPDEST PUSH2 0x8C4 JUMPI PUSH1 0x0 DUP1 REVERT JUMPDEST PUSH1 0x0 DUP1 PUSH1 0x3 DUP1 DUP2 GT ISZERO PUSH2 0x8DA JUMPI PUSH2 0x8D9 PUSH2 0xDF1 JUMP JUMPDEST JUMPDEST PUSH1 0x3 PUSH1 0x0 SWAP1 SLOAD SWAP1 PUSH2 0x100 EXP SWAP1 DIV PUSH1 0xFF AND PUSH1 0x3 DUP2 GT ISZERO PUSH2 0x8FC JUMPI PUSH2 0x8FB PUSH2 0xDF1 JUMP JUMPDEST JUMPDEST EQ ISZERO PUSH2 0x94C JUMPI CALLER SWAP2 POP PUSH1 0x8 PUSH1 0x0 CALLER PUSH20 0xFFFFFFFFFFFFFFFFFFFFFFFFFFFFFFFFFFFFFFFF AND PUSH20 0xFFFFFFFFFFFFFFFFFFFFFFFFFFFFFFFFFFFFFFFF AND DUP2 MSTORE PUSH1 0x20 ADD SWAP1 DUP2 MSTORE PUSH1 0x20 ADD PUSH1 0x0 KECCAK256 SLOAD SWAP1 POP PUSH2 0xB06 JUMP JUMPDEST PUSH1 0x0 DUP1 SLOAD SWAP1 PUSH2 0x100 EXP SWAP1 DIV PUSH20 0xFFFFFFFFFFFFFFFFFFFFFFFFFFFFFFFFFFFFFFFF AND PUSH20 0xFFFFFFFFFFFFFFFFFFFFFFFFFFFFFFFFFFFFFFFF AND CALLER PUSH20 0xFFFFFFFFFFFFFFFFFFFFFFFFFFFFFFFFFFFFFFFF AND EQ ISZERO PUSH2 0x9CD JUMPI PUSH1 0x0 DUP1 SLOAD SWAP1 PUSH2 0x100 EXP SWAP1 DIV PUSH20 0xFFFFFFFFFFFFFFFFFFFFFFFFFFFFFFFFFFFFFFFF AND SWAP2 POP PUSH1 0x5 SLOAD SWAP1 POP PUSH2 0xB05 JUMP JUMPDEST PUSH1 0x7 PUSH1 0x0 SWAP1 SLOAD SWAP1 PUSH2 0x100 EXP SWAP1 DIV PUSH20 0xFFFFFFFFFFFFFFFFFFFFFFFFFFFFFFFFFFFFFFFF AND PUSH20 0xFFFFFFFFFFFFFFFFFFFFFFFFFFFFFFFFFFFFFFFF AND CALLER PUSH20 0xFFFFFFFFFFFFFFFFFFFFFFFFFFFFFFFFFFFFFFFF AND EQ ISZERO PUSH2 0xABE JUMPI PUSH1 0x7 PUSH1 0x0 SWAP1 SLOAD SWAP1 PUSH2 0x100 EXP SWAP1 DIV PUSH20 0xFFFFFFFFFFFFFFFFFFFFFFFFFFFFFFFFFFFFFFFF AND SWAP2 POP PUSH1 0x5 SLOAD PUSH1 0x8 PUSH1 0x0 PUSH1 0x7 PUSH1 0x0 SWAP1 SLOAD SWAP1 PUSH2 0x100 EXP SWAP1 DIV PUSH20 0xFFFFFFFFFFFFFFFFFFFFFFFFFFFFFFFFFFFFFFFF AND PUSH20 0xFFFFFFFFFFFFFFFFFFFFFFFFFFFFFFFFFFFFFFFF AND PUSH20 0xFFFFFFFFFFFFFFFFFFFFFFFFFFFFFFFFFFFFFFFF AND DUP2 MSTORE PUSH1 0x20 ADD SWAP1 DUP2 MSTORE PUSH1 0x20 ADD PUSH1 0x0 KECCAK256 SLOAD PUSH2 0xAB7 SWAP2 SWAP1 PUSH2 0xD1B JUMP JUMPDEST SWAP1 POP PUSH2 0xB04 JUMP JUMPDEST CALLER SWAP2 POP PUSH1 0x8 PUSH1 0x0 CALLER PUSH20 0xFFFFFFFFFFFFFFFFFFFFFFFFFFFFFFFFFFFFFFFF AND PUSH20 0xFFFFFFFFFFFFFFFFFFFFFFFFFFFFFFFFFFFFFFFF AND DUP2 MSTORE PUSH1 0x20 ADD SWAP1 DUP2 MSTORE PUSH1 0x20 ADD PUSH1 0x0 KECCAK256 SLOAD SWAP1 POP JUMPDEST JUMPDEST JUMPDEST PUSH1 0x0 PUSH1 0x8 PUSH1 0x0 CALLER PUSH20 0xFFFFFFFFFFFFFFFFFFFFFFFFFFFFFFFFFFFFFFFF AND PUSH20 0xFFFFFFFFFFFFFFFFFFFFFFFFFFFFFFFFFFFFFFFF AND DUP2 MSTORE PUSH1 0x20 ADD SWAP1 DUP2 MSTORE PUSH1 0x20 ADD PUSH1 0x0 KECCAK256 DUP2 SWAP1 SSTORE POP DUP2 PUSH20 0xFFFFFFFFFFFFFFFFFFFFFFFFFFFFFFFFFFFFFFFF AND PUSH2 0x8FC DUP3 SWAP1 DUP2 ISZERO MUL SWAP1 PUSH1 0x40 MLOAD PUSH1 0x0 PUSH1 0x40 MLOAD DUP1 DUP4 SUB DUP2 DUP6 DUP9 DUP9 CALL SWAP4 POP POP POP POP ISZERO DUP1 ISZERO PUSH2 0xB91 JUMPI RETURNDATASIZE PUSH1 0x0 DUP1 RETURNDATACOPY RETURNDATASIZE PUSH1 0x0 REVERT JUMPDEST POP POP POP JUMP JUMPDEST PUSH1 0x0 DUP2 DUP4 GT PUSH2 0xBA7 JUMPI DUP3 SWAP1 POP PUSH2 0xBAB JUMP JUMPDEST DUP2 SWAP1 POP JUMPDEST SWAP3 SWAP2 POP POP JUMP JUMPDEST PUSH1 0x0 DUP2 CALLDATALOAD SWAP1 POP PUSH2 0xBC0 DUP2 PUSH2 0xE62 JUMP JUMPDEST SWAP3 SWAP2 POP POP JUMP JUMPDEST PUSH1 0x0 PUSH1 0x20 DUP3 DUP5 SUB SLT ISZERO PUSH2 0xBDC JUMPI PUSH2 0xBDB PUSH2 0xE20 JUMP JUMPDEST JUMPDEST PUSH1 0x0 PUSH2 0xBEA DUP5 DUP3 DUP6 ADD PUSH2 0xBB1 JUMP JUMPDEST SWAP2 POP POP SWAP3 SWAP2 POP POP JUMP JUMPDEST PUSH2 0xBFC DUP2 PUSH2 0xD61 JUMP JUMPDEST DUP3 MSTORE POP POP JUMP JUMPDEST PUSH2 0xC0B DUP2 PUSH2 0xDB0 JUMP JUMPDEST DUP3 MSTORE POP POP JUMP JUMPDEST PUSH1 0x0 PUSH2 0xC1E PUSH1 0x10 DUP4 PUSH2 0xCB4 JUMP JUMPDEST SWAP2 POP PUSH2 0xC29 DUP3 PUSH2 0xE25 JUMP JUMPDEST PUSH1 0x20 DUP3 ADD SWAP1 POP SWAP2 SWAP1 POP JUMP JUMPDEST PUSH2 0xC3D DUP2 PUSH2 0xDA6 JUMP JUMPDEST DUP3 MSTORE POP POP JUMP JUMPDEST PUSH1 0x0 PUSH1 0x20 DUP3 ADD SWAP1 POP PUSH2 0xC58 PUSH1 0x0 DUP4 ADD DUP5 PUSH2 0xBF3 JUMP JUMPDEST SWAP3 SWAP2 POP POP JUMP JUMPDEST PUSH1 0x0 PUSH1 0x20 DUP3 ADD SWAP1 POP PUSH2 0xC73 PUSH1 0x0 DUP4 ADD DUP5 PUSH2 0xC02 JUMP JUMPDEST SWAP3 SWAP2 POP POP JUMP JUMPDEST PUSH1 0x0 PUSH1 0x20 DUP3 ADD SWAP1 POP DUP2 DUP2 SUB PUSH1 0x0 DUP4 ADD MSTORE PUSH2 0xC92 DUP2 PUSH2 0xC11 JUMP JUMPDEST SWAP1 POP SWAP2 SWAP1 POP JUMP JUMPDEST PUSH1 0x0 PUSH1 0x20 DUP3 ADD SWAP1 POP PUSH2 0xCAE PUSH1 0x0 DUP4 ADD DUP5 PUSH2 0xC34 JUMP JUMPDEST SWAP3 SWAP2 POP POP JUMP JUMPDEST PUSH1 0x0 DUP3 DUP3 MSTORE PUSH1 0x20 DUP3 ADD SWAP1 POP SWAP3 SWAP2 POP POP JUMP JUMPDEST PUSH1 0x0 PUSH2 0xCD0 DUP3 PUSH2 0xDA6 JUMP JUMPDEST SWAP2 POP PUSH2 0xCDB DUP4 PUSH2 0xDA6 JUMP JUMPDEST SWAP3 POP DUP3 PUSH32 0xFFFFFFFFFFFFFFFFFFFFFFFFFFFFFFFFFFFFFFFFFFFFFFFFFFFFFFFFFFFFFFFF SUB DUP3 GT ISZERO PUSH2 0xD10 JUMPI PUSH2 0xD0F PUSH2 0xDC2 JUMP JUMPDEST JUMPDEST DUP3 DUP3 ADD SWAP1 POP SWAP3 SWAP2 POP POP JUMP JUMPDEST PUSH1 0x0 PUSH2 0xD26 DUP3 PUSH2 0xDA6 JUMP JUMPDEST SWAP2 POP PUSH2 0xD31 DUP4 PUSH2 0xDA6 JUMP JUMPDEST SWAP3 POP DUP3 DUP3 LT ISZERO PUSH2 0xD44 JUMPI PUSH2 0xD43 PUSH2 0xDC2 JUMP JUMPDEST JUMPDEST DUP3 DUP3 SUB SWAP1 POP SWAP3 SWAP2 POP POP JUMP JUMPDEST PUSH1 0x0 PUSH2 0xD5A DUP3 PUSH2 0xD86 JUMP JUMPDEST SWAP1 POP SWAP2 SWAP1 POP JUMP JUMPDEST PUSH1 0x0 PUSH2 0xD6C DUP3 PUSH2 0xD86 JUMP JUMPDEST SWAP1 POP SWAP2 SWAP1 POP JUMP JUMPDEST PUSH1 0x0 DUP2 SWAP1 POP PUSH2 0xD81 DUP3 PUSH2 0xE4E JUMP JUMPDEST SWAP2 SWAP1 POP JUMP JUMPDEST PUSH1 0x0 PUSH20 0xFFFFFFFFFFFFFFFFFFFFFFFFFFFFFFFFFFFFFFFF DUP3 AND SWAP1 POP SWAP2 SWAP1 POP JUMP JUMPDEST PUSH1 0x0 DUP2 SWAP1 POP SWAP2 SWAP1 POP JUMP JUMPDEST PUSH1 0x0 PUSH2 0xDBB DUP3 PUSH2 0xD73 JUMP JUMPDEST SWAP1 POP SWAP2 SWAP1 POP JUMP JUMPDEST PUSH32 0x4E487B7100000000000000000000000000000000000000000000000000000000 PUSH1 0x0 MSTORE PUSH1 0x11 PUSH1 0x4 MSTORE PUSH1 0x24 PUSH1 0x0 REVERT JUMPDEST PUSH32 0x4E487B7100000000000000000000000000000000000000000000000000000000 PUSH1 0x0 MSTORE PUSH1 0x21 PUSH1 0x4 MSTORE PUSH1 0x24 PUSH1 0x0 REVERT JUMPDEST PUSH1 0x0 DUP1 REVERT JUMPDEST PUSH32 0x4F776E65722063616E6E6F742062696400000000000000000000000000000000 PUSH1 0x0 DUP3 ADD MSTORE POP JUMP JUMPDEST PUSH1 0x4 DUP2 LT PUSH2 0xE5F JUMPI PUSH2 0xE5E PUSH2 0xDF1 JUMP JUMPDEST JUMPDEST POP JUMP JUMPDEST PUSH2 0xE6B DUP2 PUSH2 0xD4F JUMP JUMPDEST DUP2 EQ PUSH2 0xE76 JUMPI PUSH1 0x0 DUP1 REVERT JUMPDEST POP JUMP INVALID LOG2 PUSH5 0x6970667358 0x22 SLT KECCAK256 CALLDATACOPY DUP15 0xC 0xEC LOG4 0xB0 0xB0 DUP2 PUSH13 0xAE0D71841F7AEEB3FAEF0EDE21 0x29 PUSH1 0xE RETURN JUMP SLT 0xE7 RETURNDATASIZE PUSH30 0x4664736F6C63430008070033000000000000000000000000000000000000 "
				},
				"gasEstimates": {
					"creation": {
						"codeDepositCost": "751800",
						"executionCost": "infinite",
						"totalCost": "infinite"
					},
					"external": {
						"auctionState()": "2560",
						"bid()": "infinite",
						"bidInc()": "2430",
						"bids(address)": "2925",
						"cancelAuc()": "26643",
						"endAuc()": "26665",
						"etblock()": "2473",
						"fializeAuc()": "infinite",
						"highestBid()": "2517",
						"highestBidder()": "2536",
						"highestPayableBid()": "2518",
						"stblock()": "2495"
					},
					"internal": {
						"min(uint256,uint256)": "64"
					}
				},
				"methodIdentifiers": {
					"auctionState()": "7fb45099",
					"bid()": "1998aeef",
					"bidInc()": "15b24677",
					"bids(address)": "62ea82db",
					"cancelAuc()": "2352f320",
					"endAuc()": "3fdceefd",
					"etblock()": "9d957d45",
					"fializeAuc()": "e94f55eb",
					"highestBid()": "d57bde79",
					"highestBidder()": "91f90157",
					"highestPayableBid()": "4f5150ca",
					"stblock()": "a118be02"
				}
			},
			"storageLayout": {
				"storage": [
					{
						"astId": 3,
						"contract": "contracts/1_Storage.sol:Storage",
						"label": "auctioneer",
						"offset": 0,
						"slot": "0",
						"type": "t_address_payable"
					},
					{
						"astId": 5,
						"contract": "contracts/1_Storage.sol:Storage",
						"label": "stblock",
						"offset": 0,
						"slot": "1",
						"type": "t_uint256"
					},
					{
						"astId": 7,
						"contract": "contracts/1_Storage.sol:Storage",
						"label": "etblock",
						"offset": 0,
						"slot": "2",
						"type": "t_uint256"
					},
					{
						"astId": 15,
						"contract": "contracts/1_Storage.sol:Storage",
						"label": "auctionState",
						"offset": 0,
						"slot": "3",
						"type": "t_enum(Auc_State)12"
					},
					{
						"astId": 17,
						"contract": "contracts/1_Storage.sol:Storage",
						"label": "highestBid",
						"offset": 0,
						"slot": "4",
						"type": "t_uint256"
					},
					{
						"astId": 19,
						"contract": "contracts/1_Storage.sol:Storage",
						"label": "highestPayableBid",
						"offset": 0,
						"slot": "5",
						"type": "t_uint256"
					},
					{
						"astId": 21,
						"contract": "contracts/1_Storage.sol:Storage",
						"label": "bidInc",
						"offset": 0,
						"slot": "6",
						"type": "t_uint256"
					},
					{
						"astId": 23,
						"contract": "contracts/1_Storage.sol:Storage",
						"label": "highestBidder",
						"offset": 0,
						"slot": "7",
						"type": "t_address_payable"
					},
					{
						"astId": 27,
						"contract": "contracts/1_Storage.sol:Storage",
						"label": "bids",
						"offset": 0,
						"slot": "8",
						"type": "t_mapping(t_address,t_uint256)"
					}
				],
				"types": {
					"t_address": {
						"encoding": "inplace",
						"label": "address",
						"numberOfBytes": "20"
					},
					"t_address_payable": {
						"encoding": "inplace",
						"label": "address payable",
						"numberOfBytes": "20"
					},
					"t_enum(Auc_State)12": {
						"encoding": "inplace",
						"label": "enum Storage.Auc_State",
						"numberOfBytes": "1"
					},
					"t_mapping(t_address,t_uint256)": {
						"encoding": "mapping",
						"key": "t_address",
						"label": "mapping(address => uint256)",
						"numberOfBytes": "32",
						"value": "t_uint256"
					},
					"t_uint256": {
						"encoding": "inplace",
						"label": "uint256",
						"numberOfBytes": "32"
					}
				}
			},
			"userdoc": {
				"kind": "user",
				"methods": {},
				"version": 1
			}
		}
	}
}